:020000040800F2
:10000000F80B00209D01000807370008B52B0008F9
:1000100005370008550A0008393C000800000000B8
:100020000000000000000000000000000B37000886
:10003000090B000800000000093700080D37000810
:10004000B7010008B7010008B7010008B7010008B0
:10005000B7010008B7010008B7010008B7010008A0
:10006000B7010008B7010008B7010008B701000890
:10007000B7010008B7010008B7010008B701000880
:10008000B7010008B701000821090008B7010008FE
:10009000B7010008B7010008B7010008B701000860
:1000A000B7010008B7010008B7010008B701000850
:1000B000B7010008B7010008B7010008B701000840
:1000C000B7010008B7010008B7010008B701000830
:1000D000B7010008B7010008B7010008B701000820
:1000E000B7010008B7010008B7010008CD370008C4
:1000F000B7010008B7010008B7010008B701000800
:10010000B7010008B7010008C1370008B7010008AF
:10011000B7010008B7010008B7010008B7010008DF
:10012000590A0008B7010008B7010008B701000824
:10013000B7010008B7010008B7010008B7010008BF
:10014000B7010008B7010008B7010008B7010008AF
:10015000B7010008B7010008B7010008B70100089F
:10016000B7010008B7010008B7010008B70100088F
:10017000B7010008B7010008B7010008000000003F
:10018000B7010008B7010008DFF80CD000F01EFB33
:100190000048004785500008F80B002006488047BB
:1001A00006480047FEE7FEE7FEE7FEE7FEE7FEE75C
:1001B000FEE7FEE7FEE7FEE7A53700088901000835
:1001C0002DE9F05F0546002092469B46884606468C
:1001D000814640241BE0284641464746224600F01F
:1001E0000EFA53465A46C01A914110D3114618468A
:1001F000224600F0F5F92D1A67EB01084F4622461A
:100200000120002100F0ECF917EB00094E41201EFF
:10021000A4F10104DFDC484631462A464346BDE8E6
:10022000F09FD2B201E000F8012B491EFBD27047CB
:100230000022F6E710B513460A4604461946FFF7B2
:10024000F0FF204610BD2DE9FE4F804681EA0300F5
:10025000C00F0C46009021F0004123F00045B8EBA0
:100260000200A94105D24046214690461C460B4655
:10027000024623F00040104347D0270DC7F30A0081
:10028000C3F30A510290401A019040286BDAC3F37D
:10029000130040F4801B0098924620B10023D2EB5B
:1002A000030A63EB0B0B01985946C0F1400250461C
:1002B00000F096F906460D4650465946019A00F060
:1002C000AEF910EB08006141002487EA115284EA7C
:1002D000E7731A4340D0009A62B3019A012A4FEAA9
:1002E000075215DC001B61EB02014FF0004202EAED
:1002F0000752CDE90042001C41F5801132462B46E1
:1003000000F0E5F903B0BDE8F08F40462146F9E77B
:10031000001B61EB0201001C41F5801300185B41DA
:100320002018A2F5001747EB030140EAD570B61973
:100330006D4111E06D084FEA360645EAC0754FEA97
:100340000752001B61EB0201001C41F580114908B6
:100350004FEA30000019514132462B4603B0BDE848
:10036000F04F00F0A5B90098012240000023D0EB27
:10037000020263EBE073009821464FEAE074B8EBA9
:10038000000061EB0401E9E783F000435BE781F0E3
:10039000004158E72DE9FE4F81EA030404F00044D0
:1003A00021F0004100944FF0000B23F0004350EA8D
:1003B00001045ED052EA03045BD0C3F30A54C1F3D4
:1003C0000A552C44A4F2F3340194A0FB0254C1F367
:1003D000130141F48011C3F3130343F4801301FBB1
:1003E000024400FB034E840A970A44EA815447EA18
:1003F0008357A4FB076802958D0A05FB07854FEA22
:10040000932C04FB0C542705029D4FEA065847EA3B
:100410001637B5EB08056EEB070C870E920E47EA10
:10042000811742EA8312A7FB0201B6EB0B0164EBD2
:1004300000042B0D43EA0C335E1844EB1C50DA46E3
:100440005146E7FB0201C5F313044FEA0B3343EABD
:1004500014534FEA0432019C43EA0603A4F10C044E
:100460000294009CCDE900B400F031F903B0BDE87E
:10047000F08F00200146F9E72DE9F04D81EA0304F1
:1004800004F0004B21F0004514464FF0000A23F021
:10049000004150EA050220D054EA01021DD0C5F304
:1004A0000A570246C5F31303C1F31300C1F30A56FA
:1004B00040F4801543F48013A7EB0608101BD646C2
:1004C00008F2FD3873EB050002D308F1010801E0E2
:1004D00092185B41B8F1000F03DA00200146BDE835
:1004E000F08D00204FF48011064684460EE0171B65
:1004F00073EB050705D3121B63EB050306434CEAB8
:10050000010C49084FEA300092185B4150EA01079C
:10051000EDD152EA030012D082EA040083EA050119
:10052000084305D0101BAB4106D20122002306E090
:1005300000224FF0004302E06FF0010253101AEB6B
:1005400006004CEB085110EB0A0041EB0B01BDE833
:10055000F04D00F0ADB800F0004230F000400AD09D
:10056000C10D01F56071C0F3160042EA0151C208E5
:1005700040071143704700200146704701F00043D7
:1005800030B421F0004150EA010206D00A0DA2F574
:100590006072C1F31301002A02DC30BC00207047F6
:1005A000440F44EAC104C100E01830BC00EBC25063
:1005B00000F047B830B50B46014600202022012448
:1005C00009E021FA02F59D4205D303FA02F5491B21
:1005D00004FA02F52844151EA2F10102F1DC30BD37
:1005E000202A04DB203A00FA02F1002070479140F3
:1005F000C2F1200320FA03F3194390407047202AE8
:1006000004DB203A21FA02F00021704721FA02F3BC
:10061000D040C2F120029140084319467047202A79
:1006200006DBCB17203A41FA02F043EAE07306E01A
:1006300041FA02F3D040C2F120029140084319462A
:1006400070470029A8BF7047401C490008BF20F030
:100650000100704710B4B0FA80FC00FA0CF050EAC8
:10066000010404BF10BC704749B1CCF1200421FA49
:1006700004F411FA0CF118BF012121430843A3EB44
:100680000C01CB1D4FEA00614FEA102042BF002051
:1006900010BC704700EBC35010440029A4BF10BC2D
:1006A0007047401C490008BF20F0010010BC704793
:1006B00010B5141E73F1000408DA401C41F100016A
:1006C00092185B411A4301D120F0010010BD2DE9C1
:1006D000F04D92469B4611B1B1FA81F202E0B0FAB8
:1006E00080F220329046FFF77BFF04460F4640EA37
:1006F0000A0041EA0B0153465A46084313D01146FB
:1007000053EA010019D0C8F140025046FFF777FFC5
:1007100005460E46504659464246FFF761FF0843DC
:1007200005D0012004E020463946BDE8F08D0020C8
:10073000054346EAE0762C4337430A986305E40A0A
:10074000A0EB08000022FD0A44EA47540A3002D513
:1007500000200146E9E7010510196941DDE9084576
:1007600000196941BDE8F04DA2E7C1F30A52C1F397
:10077000130140F2FF3341F480119A4202DA002063
:100780000146704740F233439A42A2F2334202DC00
:100790005242FFF734BFFFF723BF000030B5041EFD
:1007A00071F1000404DB4FF00044404264EB0101AE
:1007B000141E73F1000405DB1C464FF00043524247
:1007C00063EB0403994208BF904230BD064C074DCD
:1007D00006E0E06840F0010394E807009847103411
:1007E000AC42F6D3FFF7D4FCD0620008F0620008F8
:1007F0002DE9F04D00231A461B1A8A4103DB002025
:100800000146BDE8F08DC1F30A52C1F3130141F472
:1008100080154FF0000BD10702D100186D41521E18
:100820000027044640F2FF11384601EB620A3E46BB
:100830008046024600204FF48011FFF7E0FEC21907
:100840007141BB1846EB0100B4EB030C75EB000CD7
:1008500004D3E41A65EB000517460E46241908F187
:1008600001006D4180463428E3DDF91946EB0600AE
:10087000091BA84103D24FF0FF32134601E00022CA
:1008800013461BEB070046EB0A51BDE8F04DFFF79E
:100890000FBF10B50146806B026C12F0500F05D0EF
:1008A000026CD20626D500F0DBF910BD016C41F4D4
:1008B0000071016401688A6812F0405F17D1027EFE
:1008C000AAB9CA6A12F4700F02D08A6852050ED40F
:1008D0004A6822F020024A60016C21F480710164B0
:1008E000016CC90403D4016C41F00101016400F002
:1008F000B5F910BD806BC26CBDE8104008461047CA
:1009000010B5806B40210164416C41F004014164E9
:1009100000F0A6F910BD10B5806B00F0A0F910BD75
:10092000014800F09EB90000BC040020464910B503
:100930004A6822F440324A604A6843681A434A606F
:1009400001684A6822F480724A6001684A68036953
:1009500042EA03224A6001684A6822F040724A6013
:1009600001684A6883681A434A6001688A6822F409
:1009700000628A6001688A68C3681A438A60816A73
:100980006FF07062D14201688A6822F070628A60FA
:1009900001688A680CD0836A1A438A6001688A6891
:1009A00022F040528A6001688A68C36A1A4301E0F3
:1009B00022F040528A6001688A6822F002028A604E
:1009C00001688A68037E42EA43028A6090F8201038
:1009D000002901684A680FD042F400624A60016849
:1009E0004A6822F460424A6001684A68174C436AC8
:1009F00004EB43331A4301E022F400624A600168C9
:100A0000CA6A22F47002CA620168CA6A838B104CF7
:100A100004EB03531A43CA6201688A6822F4007225
:100A20008A6001688A6890F8303042EA43228A601E
:100A300001688A6822F480628A6001688A68406975
:100A400042EA8020886010BD0023014000E0FFFFE3
:100A50000000F0FFFEE70000014800F0B9BA000016
:100A60000405002001681823CAB2103AB2FBF3F261
:100A7000054B6FF30901032A9B5CC36500D9091D6F
:100A80008165084670470000C061000810B5014646
:100A900000208B698A6A4FF0C07453B1B3F5005FD0
:100AA00015D072B1012A0CD0022A0AD0032A09D12A
:100AB00004E01AB1012A06D0022A03D1C96AC90189
:100AC00000D5012010BDC96AA142FAD010BD002A8C
:100AD000F7D0012AF2D0022AF3D0032AF3D010BDB6
:100AE00030B50468256825F48025256004686360B6
:100AF0008368402B036803D099600068C26030BDF2
:100B00009A600068C16030BD704772B6FEE77047FA
:100B100078B50024009490F83C20012A19D00122D5
:100B200080F83C200A6807230568092A13D9EE6873
:100B30000A3A02EB420293409E43EE600B788A68C9
:100B40000A3B03EB43039A400368DD682A43DA60FB
:100B500010E0022078BD2E6902EB420293409E43D2
:100B60002E610B788A6803EB43039A4003681D6982
:100B70002A431A614A681F23072A13D205686E6B3D
:100B8000521E02EB820293409E436E630B790A88E9
:100B90005B1E92B203EB83039A4003685D6B2A43AA
:100BA0005A6327E005680D2A12D22E6BD21F02EB82
:100BB000820293409E432E630B790A88DB1F92B218
:100BC00003EB83039A4003681D6B2A431A6311E009
:100BD000EE6A0D3A02EB820293409E43EE620B797D
:100BE0000A880D3B92B203EB83039A400368DD6AE7
:100BF0002A43DA62164B0568144A9D4206D10D68F5
:100C0000122D03D1556845F48005556005689D4255
:100C100018D10B68102B01D0112B13D1536843F45A
:100C200000035360096810290CD10A490A4A09686F
:100C3000B1FBF2F101EB8101490000E0491E009196
:100C40000029FBD180F83C40002078BD0023014002
:100C5000002001407800002040420F00704770479C
:100C6000704770B50446006801684268C1F34001EE
:100C7000C2F3401251B34AB3216CC90603D4216CAC
:100C800041F400712164816811F0405F17D1217E29
:100C9000A9B9C16A11F4700F02D0816849050ED458
:100CA000416821F020014160206C20F480702064B4
:100CB000206CC00403D4206C40F001002064204666
:100CC000FFF7CCFF21686FF0120008602068016810
:100CD0004268C1F38001C2F3C01289B382B3216CB0
:100CE000C90603D4216C41F400512164816811F4D8
:100CF000401F1ED1816B11F4401F02D0816849054D
:100D000017D44168490514D4816811F0405F10D1AF
:100D1000217E71B9416821F080014160206C20F48E
:100D200080502064206CC00503D4206C40F001008A
:100D300020642046FFF7EBFE21686FF00C0008608E
:100D400020680168426811F0010FC2F380120ED0D2
:100D50006AB10068C0070AD0206C40F4803020647B
:100D6000204600F046F821686FF001000860206816
:100D700001684268C1F34011C2F3806200290DD0BE
:100D8000002A0BD0616C41F0020161646FF0200514
:100D900005602046FFF764FF2068056070BD70B5F0
:100DA00004004FF0000503D0206C002610B107E0CE
:100DB000012070BD204600F01DF8666484F83C6098
:100DC000206CC00610D4206C20F4885040F0020043
:100DD00020642046FFF7AAFD6664206C20F0020024
:100DE00040F00100206400E0012584F83C602846C2
:100DF00070BD704770B586B0064614216846FFF78F
:100E000017FA2249306888423DD1214800250168FF
:100E100041F480710160006800F4807005901C4806
:100E20001438016841F0010101600068694600F072
:100E300001000590102000900320CDE90105154820
:100E400000F04AFA154C1448C4E900050015A560E5
:100E5000C4E90350800060618000A0618011E061FE
:100E60004002C4E90805204600F082F908B1FFF706
:100E70004CFEB463002211461220A66300F0C8FEA7
:100E8000122000F0B7FE06B070BD00000020014047
:100E90004438024000000240106402400405002073
:100EA000F8B50E4600210446009190F83C00012858
:100EB00007D0012084F83C0020688368DB0702D05B
:100EC00011E00220F8BD836843F0010383603748D6
:100ED000374B0068B0FBF3F000EB400000E0401E31
:100EE00000900028FBD120688368DB075CD0236C6E
:100EF00040F20165AB4343F48073236440684005CE
:100F000005D5206C20F4005040F480502064206C03
:100F1000C00404D5606C20F00600606400E06164E9
:100F200084F83C10A16B2448224DC863A16B234870
:100F30000864A16B2248C86421686FF02200086031
:100F40002068416841F0806141602068816841F417
:100F5000807181602168134632464C31A06B00F0ED
:100F600071F968681749C006206806D088421BD10D
:100F7000816811F0405F13D016E08842F8D0124A21
:100F8000904203D1D1F80423D206F1D00F4A904207
:100F90000AD1D1F8041301F01F011029E8D303E0AE
:100FA000816841F0804181600020F8BD7800002018
:100FB00040420F0000230140930800081709000871
:100FC00001090008002001400021014000220140E9
:100FD0002DE9F84304464FF00009CDF8009063482E
:100FE0004FF41651A56D0068B0FBF1F72E6894F828
:100FF0005C10082000FA01F131420FD021680A6824
:1010000052070BD50A6822F004020A6094F85C10BB
:101010008840A860606D40F00100606594F85C1045
:101020004FF0010808FA01F0304208D02168496900
:10103000090604D5A860606D40F00200606594F870
:101040005C1004208840304208D021680968890774
:1010500004D5A860606D40F00400606594F85C10F1
:1010600010208840304218D021680968090714D53B
:10107000A86020680168490304D50068000308D50A
:10108000A16C07E00168C90503D4016821F00801DB
:101090000160216C09B12046884794F85C1020203B
:1010A0008840304231D021680968C9062DD5A86032
:1010B00094F8350005282068016806D0490347D513
:1010C000006800031DD4616C1CE021F01601016072
:1010D0002068416921F080014161206C08B9A06C51
:1010E00020B12068016821F00801016094F85C10CB
:1010F0003F208840A86084F8349084F83580216DC2
:101100001FE0E16B09B120468847606D00282BD0B5
:10111000606DC00714D0052084F835002068016890
:1011200021F0010101600098401C0090B84203D8F2
:1011300020680068C007F6D184F8349084F83580C0
:10114000E16C002910D001B02046BDE8F04308470B
:101150000168C905D5D4016821F01001016084F847
:10116000349084F83580CCE7BDE8F883780000201F
:101170002DE9F041044600F097F906465CB10025E0
:1011800084F83450022084F835002068016821F08A
:10119000010101600DE00120BDE8F08100F084F95B
:1011A000801B052805D920206065032084F83500C0
:1011B000F2E720680068C007F0D122681168204873
:1011C0000140D4E901031843D4E9033633431843FB
:1011D00063691843A3691843E3691843236A1843F2
:1011E0000843616A042903D1D4E90B131943084366
:1011F000106020684069666A20F0070130460E439F
:10120000012704280CD1A06A0643E06A40B12046B9
:10121000FFF73CFC20B14020606584F83570BAE7E8
:10122000206846612046FFF71DFC94F85C203F21B2
:1012300091408160656584F835700020ACE700005E
:101240003F8010F02DE9F0410446866D90F834009F
:10125000002501280DD0012084F8340094F8357061
:101260000020012F07D084F8340002252846BDE86D
:10127000F0810220FBE7022784F835706065204684
:10128000FFF72EFC94F85C103F208840B060206887
:10129000016841F016010160206C20B120680168EE
:1012A00041F0080101602068016841F0010101601E
:1012B000DCE7000070B5044600F0F6F80546601C57
:1012C00002D004480078044400F0EEF8401BA0422D
:1012D000FAD370BD6C0000202DE9F84F00224FF0CA
:1012E000010803254FF00F0E0B6808FA02F42340A3
:1012F000A3426ED14E68012E05D0022E03D0112ECE
:1013000001D0122E12D186684FEA420C05FA0CF772
:10131000BE43CF6807FA0CF7374387604668A64399
:101320000C79C4F30014944034434460C6685700F9
:1013300005FA07FC8C6826EA0C06BC403443C460FE
:101340004C68022C01D0122C13D1D40800EB840479
:10135000A346D4F8209054074FEAD46A0EFA0AF64E
:1013600029EA06090E6906FA0AF646EA0906CBF8E2
:10137000206006680C7926EA0C0604F00304BC40E1
:10138000344304604C68E40065D5364C266846F466
:1013900080462660246822F0030604F4804400940A
:1013A000314C3444A446D4F808489607370F0EFA57
:1013B00007F6B4432D4EB04201D1002624E02C4E56
:1013C000B04201D101261FE02A4EB04202D10226CE
:1013D0001AE040E0284EB04201D1032614E0274E27
:1013E000B04201D104260FE0254EB04201D10526BE
:1013F0000AE0244EB04201D1062605E0224EB0425A
:1014000001D1072600E00826BE402643CCF8086834
:101410001E4E34684F689C43FF0300D51C43346064
:101420001A4C241D26684F689E43BF0300D51E43F7
:101430002660164E083634684F689C43FF0200D57C
:101440001C433460114E0C3634684F689C43BF0215
:1014500000D51C433460521C102AFFF445AFBDE890
:10146000F88F000044380240003001400000024084
:101470000004024000080240000C0240001002403C
:101480000014024000180240001C0240003C0140D1
:10149000426931EA020200D10904816170470AB150
:1014A000816170470904FBE70148806870470000CC
:1014B0006C00002090F83D007047000070B50400FB
:1014C00025D094F83D00002520B984F83C502046F2
:1014D00000F002FB242084F83D002068016821F020
:1014E000010101602068016841F400410160206849
:1014F000016821F40041016000F056FC4D4A61682A
:10150000914201D84C4900E04C49884201D2012067
:1015100070BD4B492368B0FBF1F15E6826F03F06D1
:101520000E435E606368934206D94FF49673594345
:101530004FF47A73B1FBF3F12368491C1E6A26F05D
:101540003F06314319626168914210D84900401E3C
:10155000B0FBF1F2521CC2F30B02042A01D20420A8
:1015600022E0B0FBF1F0401CC0F30B001CE0A268CD
:10157000F2B301EBC10303EB0116431EB3FBF6F319
:101580005B1C43F480431B0549D092B301EBC102BD
:1015900002EB0111401EB0FBF1F0401CC0F30B0048
:1015A00040F4804040F400402168CA694CF6FF7363
:1015B0009A431043C861D4E90710014320680268C8
:1015C00022F0C00211430160D4E903010143206805
:1015D000826848F2FF339A4311438160D4E90501E0
:1015E00008432168CA6822F0FF021043C86001E086
:1015F0000EE016E02068016841F0010101602564F9
:10160000202084F83D00256384F83E50002070BD02
:1016100001EB4106431EB3FBF6F35B1CB3E701206D
:10162000C2E701EB4101401EB0FBF1F0401CC0F3EA
:101630000B00B7E7A086010080841E0000093D0072
:1016400040420F002DE9FF4F81B089460446FFF765
:101650002BFF054694F83D004FF0010820287DD16E
:101660001923012250492046009501F0B3FB0028C0
:1016700074D194F83C00012870D0012084F83C001B
:1016800020680168C90703D1016841F001010160C8
:101690002068016821F400610160242084F83D0085
:1016A000002626644148E0624FF0011B2027206895
:1016B000016841F48071016000950022594620467E
:1016C000049B01F087FB50B120680068C00502D57B
:1016D0004FF400702064032005B0BDE8F08F21684E
:1016E00009F0FE000861FFF7DFFE21680546486942
:1016F0004969C0F34000C1F380214FF0A00A0FE018
:10170000FFF7D2FE411B0498814200D808B984F843
:101710003DA0216848694969C0F34000C1F38021B8
:1017200094F83D20A02A02D008B90029E8D084F816
:101730003D7020684169C943890716D4016841F4A6
:1017400000710160206841698069192301221649EE
:101750002046009501F03EFBB8B900E021E084F896
:101760003D7084F83C600020B6E7016841F40071E8
:10177000016021686FF480604861192301220A49E1
:101780002046009501F026FB08B10120A4E703984C
:1017900008F1010880458AD384F83D7084F83C60E4
:1017A000F3E7022098E70000020010000000FFFFAE
:1017B0002DE9FF4F83B09A46DDE911979346044621
:1017C000DDF84080FFF770FE054694F83D002028C4
:1017D00070D11923012271492046009501F0FAFACF
:1017E0000028F5D194F83C00012863D0012084F84A
:1017F0003C0020680168C90703D1016841F001017C
:1018000001602068016821F400610160222084F8F1
:101810003D00402084F83E0000262664C4F8248061
:10182000A4F82A90608D20855D48E062CDE90075BE
:1018300053465A462046049901F0D4F900287CD139
:10184000208DD0B1012821D00228206824D0416900
:1018500080690090208D032869D801282BD0514938
:1018600002283B464FF00002009559D0884620469A
:1018700001F0B0FA002860D13CE02068416981693C
:101880000091016841F40071016077E0206801680F
:1018900021F480610160F0E7016821F4806101605A
:1018A0002068016841F40061016020684169806935
:1018B000009063E06FE02A463946204601F009FBBC
:1018C00098BB20680069616A08704EE02068016872
:1018D00041F40071016020680069616A0870606A03
:1018E000401C6062218D491E2185618D491E6185E4
:1018F000216838E02068016821F480610160206877
:101900000069616A0870606A401C6062208D401E38
:101910002085608D401E60853B4600224146009533
:10192000204601F057FA00B9D0E706E0FFE72A4663
:101930003946204601F0CDFA18B1012007B0BDE8C4
:10194000F08F20680069616A0870606A401C6062FC
:10195000218D491E2185618D491E618521684A6955
:10196000D24352070AD409690170606A401C606260
:10197000208D401E2085608D401E6085208D0028B2
:101980007FF468AF202084F83D0084F83E6084F83E
:101990003C600020D2E70220D0E7000002001000E7
:1019A0000000FFFF040001002DE9FF4F83B09A46BD
:1019B000DDE9119793460446DDF84080FFF774FD9A
:1019C000054694F83D0020287FD119230122404983
:1019D0002046009501F0FEF9002876D194F83C00ED
:1019E000012872D0012084F83C0020680168C907F2
:1019F00003D1016841F0010101602068016821F410
:101A000000610160212084F83D00402084F83E0000
:101A100000262664C4F82480A4F82A90608D2085CE
:101A20002C48E062CDE9007553465A462046049999
:101A300001F056F970B930E02A463946204601F0E7
:101A40007BFA58B1206C042804D12068016841F465
:101A500000710160012007B0BDE8F08F606A216865
:101A600000780861606A401C6062218D491E89B25D
:101A70002185628D521E628522685369DB435B07B4
:101A80000BD469B100781061606A401C6062208DDF
:101A9000401E2085608D401E6085208D0028CBD1A2
:101AA0002A463946204601F06FF90028CAD154F879
:101AB0003D0B016841F400710160202004F81E090B
:101AC000E67766770020C6E7FFE70220C3E700005D
:101AD000020010000000FFFF10B586B0044614217C
:101AE0006846FEF7A5FB13492068884220D11248BA
:101AF000016841F0020101600068694600F00200DF
:101B00000590C02000901220019001200290032037
:101B10000390042004900948FFF7DEFB06481030CC
:101B2000016841F400110160006800F400100590A4
:101B300006B010BD0054004030380240000402409E
:101B40000248816802781144816070476C0000206F
:101B50000B4810B5016841F400710160016841F45F
:101B600080610160016841F480710160032000F030
:101B70006FF8002000F006F800F024F8002010BDF7
:101B8000003C024070B50D4D04464FF47A71287840
:101B9000B1FBF0F00A490968B1FBF0F000F002FB7C
:101BA00048B9102C07D200222146501E00F030F810
:101BB00000206C6070BD012070BD00006C00002032
:101BC000780000200A4808B5016841F480410160AE
:101BD000006800F4804000900548001F016841F053
:101BE00080510160006800F08050009008BD000046
:101BF00044380240002809DB00F01F020121914017
:101C00004009800000F1E020C0F80011704700009A
:101C1000F0B40E4B1B680C46C3F30223C3F1070557
:101C2000042D00D90425191D072901D2002300E045
:101C3000DB1E012606FA05F1491E214099409E400F
:101C4000761E16403143F0BC02F020B80CED00E0E7
:101C5000064900F0070208684FF6FF03184040EA03
:101C60000220034A10430860704700000CED00E0BA
:101C70000000FA052DE9F0470E46050065D0DFF8B3
:101C80001481D8F80000F7B200F00F00B04207D27C
:101C900088F80070D8F8000000F00F00B04254D16E
:101CA00028683D4C810712D5400703D5206840F4D1
:101CB000E05020602878000703D5206840F4604099
:101CC00020602068A96820F0F00008432060287890
:101CD000C0072DD0304968680839012812D0022881
:101CE00013D0032811D00968890700292DDA21684B
:101CF00021F0030101432160FFF7D6FB814641F249
:101D0000883A0EE009688903EFE709688901ECE782
:101D1000FFF7CAFBA0EB0901514502D90320BDE83A
:101D2000F0872068696800F00C00B0EB810FEFD1FC
:101D3000D8F80010404601F00F01B14207D90770F2
:101D4000006800F00F00B04201D00120E7E72878DA
:101D5000400705D52068E96820F4E050084320607A
:101D60002878000706D52068296920F4604040EAF9
:101D7000C100206000F038F82168084AC1F303115F
:101D8000515CC8400649086006480068FFF7FAFE43
:101D90000020C4E7003C024008380240C861000847
:101DA0007800002070000020044805490068096898
:101DB000044AC1F38221515CC8407047780000207A
:101DC00008380240D86100080448054900680968DD
:101DD000044AC1F34231515CC8407047780000208A
:101DE00008380240D8610008154810B5006810F0A6
:101DF0000C02144813D04110042A0FD0082A0ED127
:101E00000F4C241F2268236802F03F025B0207D5B3
:101E10002068C0F38810A0FB010106E0084610BD51
:101E20002168C1F38811A1FB00010023FEF7C8F966
:101E30002168C1F30141491C4900B0FBF1F010BD1C
:101E4000083802400024F4002DE9F84F04006ED059
:101E50002078DFF83C93C007A9F104054AD009F1C6
:101E600004000168C1F38101012908D00068C0F3B2
:101E7000810002280AD1D9F80000400206D528685E
:101E8000800337D560680028E1D033E06068B0F5A2
:101E9000803F10D0B0F5A02F286810D020F48030FB
:101EA0002860286820F4802028606068A8B1FFF7C7
:101EB000FBFA06460DE0286840F48030F4E740F471
:101EC00080202860F7E700BFFFF7EEFA801B642848
:101ED00073D828688003F7D50CE0FFF7E5FA0646CB
:101EE00005E000BFFFF7E0FA801B6428F0D82868FF
:101EF0008003F7D42078DFF89C8280074FF0000A37
:101F00003ED5A348001D016811F00C0F08D00068F1
:101F1000C0F3810002280BD1D9F80000400207D499
:101F20002868800716D5E068012800D112E02BE16F
:101F3000E068B8B10120C8F80000FFF7B5FA06461E
:101F400005E000BFFFF7B0FA801B0228C0D8286860
:101F50008007F7D52868216920F0F80040EAC10021
:101F600028600DE0C8F800A0FFF79EFA064604E0DE
:101F7000FFF79AFA801B02281FD828688007F7D439
:101F80002078000722D5824E83486169703671B18E
:101F900001210160FFF788FA074604E0FFF784FAA1
:101FA000C01B022809D830688007F7D50EE0C0F8BA
:101FB00000A0FFF779FA074605E082E0FFF774FA20
:101FC000C01B02287DD830688007F7D420784007EE
:101FD00068D5DFF8BCB100270BF13C0BDBF8000043
:101FE000C0000BD4DBF8001041F08051CBF800109A
:101FF000DBF80000012700F080500090674E306849
:10200000C00510D4306840F480703060FFF74CFA9F
:10201000009005E0FFF748FA0099401A022850D8CE
:102020003068C005F6D55A4EA0686C3601280FD02E
:102030000528306810D020F001003060306820F0B2
:1020400004003060A068B8B1FFF72EFA00900FE0EE
:10205000306840F00100F4E740F004003060F7E73A
:10206000FFF722FA0099411A41F28830814266D87E
:1020700030688007F4D50EE0FFF716FA009007E00D
:10208000FFF712FA0099411A41F28830814256D87E
:1020900030688007F4D42FB1DBF8001021F08051B4
:1020A000CBF80010A069C8B33949091D0968C1F30C
:1020B000810102294AD00228504607D0C8F86000A2
:1020C00000E03CE0FFF7F0F904463BE04746C8F883
:1020D0006000FFF7E9F9064605E000BFFFF7E4F905
:1020E000801B02282BD828688001F7D4D4E9070187
:1020F0000843A16A2A4A490802EB0141626A41EA9F
:102100008211084394F82C1040EA0161C9F80010CC
:1021100001203866FFF7C8F9044606E036E000BF44
:10212000FFF7C2F9001B022809D828688001F7D5FB
:102130002CE000BFFFF7B8F9001B022802D90320EA
:10214000BDE8F88F28688001F4D41FE00128F7D09B
:10215000D9F80000E26900F48001914214D1226AAA
:1021600000F03F0191420FD147F6C071626A014011
:10217000914209D1A26A00F44031914204D1E16A4E
:1021800000F07060884201D00120D9E70020D7E735
:102190000438024000004742800E47420070004071
:1021A0000000FFFF10B5401EB0F1807F01D3012079
:1021B00010BD4FF0E02460610F21601701F066FD53
:1021C0000020A06107202061002010BD70477047EB
:1021D00010B590F83C20012A22D0012280F83C2042
:1021E000CA688C6822F4407222434C6822F48062F0
:1021F00022430C6822F4006222430C6922F48052CC
:1022000022434C6922F400522243C969002322F47C
:1022100080420A4301684A6480F83C30002010BDC7
:10222000022010BD70B590F83C20012A32D0012464
:1022300080F83C40022280F83D2003685A689D687F
:1022400022F070060A6832435A60134B02689A42C1
:1022500014D0B2F1804F11D0104B9A420ED0104BD7
:102260009A420BD00F4B9A4208D00F4B9A4205D09E
:102270000E4B9A4202D00E4B9A4204D1496825F087
:1022800080031943916080F83D40002180F83C10A4
:10229000084670BD022070BD0000014000040040EF
:1022A00000080040000C00400004014000400140D4
:1022B0000018004010B5040003D094F83D0010B1A0
:1022C00007E0012010BD002084F83C00204600F00B
:1022D0000DF8022084F83D00211D206801F07CFAF1
:1022E000012084F83D00002010BD000008B5154A0B
:1022F0000168154891420ED1016841F00801016062
:102300000068002200F00800009001213220FFF751
:102310007FFC322010E00D4A914211D1016841F05A
:10232000400101600068002200F04000009011466A
:102330002B20FFF76DFC2B20BDE80840FFF75ABCAF
:1023400008BD0000000C004040380240001800406A
:102350000168CA6842F00102CA600068816801F041
:102360000701062903D0016841F001010160002046
:10237000704770B5044690F83C00012817D001253D
:1023800084F83C50022084F83D002068826822F0E6
:10239000770222F47F4282600868502830D00DDC3A
:1023A00020284DD005DC98B310283BD148E002200E
:1023B00070BD302844D0402834D139E0602828D07E
:1023C000702806D0B0F5805F2CD0B0F5005F29D121
:1023D0000AE0CB68D1E90121206801F06EFA20689B
:1023E000816841F0770109E0CB68D1E901212068DB
:1023F00001F063FA2068816841F48041816011E056
:10240000CA684968206801F02DFB5021206807E068
:1024100016E0CA684968206801F035FB6021206831
:1024200001F055FA84F83D50002084F83C0070BD5E
:10243000CA684968206801F015FB40212068EFE771
:10244000226801461046EBE72DE9F0410D460400F5
:1024500003D094F83D0018B108E00120BDE8F081F8
:10246000002084F83C00204600F03AF8022084F86E
:102470003D002068816844F2070291438160211D7C
:10248000206801F0A9F9226890689169166A2B68A2
:10249000AF69034340F20330814341EA0721A86852
:1024A000EF6908434FF6FC418843E96840EA07209A
:1024B000014328692F6A000140EA07300843696830
:1024C0006D6926F0AA0646EA05152943936022683D
:1024D000906120680162012084F83D000020BDE782
:1024E00070B586B0044614216846FDF7A1FE2C4A5B
:1024F000256800242A49103A02232A48B5F1804F62
:1025000017D0294EB5422FD10D6845F002050D6058
:10251000096801F002010591116841F001011160A3
:10252000116801F001010591C0218DE81A0069468A
:1025300033E00D6845F001050D60096801F0010107
:102540000591116841F001011160116801F001016C
:10255000059103218DE81A000121CDE90341694667
:10256000FEF7BAFE06B070BD10488542FAD1086881
:1025700040F004000860086800F00400059010684E
:1025800040F0080010601068694600F008000590EF
:102590004FF440508DE819000548CDE90343DFE7CB
:1025A00040380240000002400004004000080040A3
:1025B000000C024010B50446006889B104294FF0B0
:1025C000010216D0002101F06BF9012204212068DC
:1025D00001F066F92068C16841F00201C1600BE0BA
:1025E0000122002101F05CF92068C16841F002017C
:1025F00006E0042101F054F92068C16841F00401AB
:10260000C1602068016841F001010160002010BD37
:10261000704770B50446006801694FF00005C94372
:10262000890715D4C168C943890711D4E91E01611E
:1026300001202077206880698007204602D0FFF7BC
:10264000E7FF04E000F0C2F8204600F057F92577D4
:1026500020680169C943490717D4C168C9434907BC
:1026600013D46FF004010161022020772068806993
:1026700010F4407F204602D0FFF7CAFF04E000F0CC
:10268000A5F8204600F03AF9257720680169C9438A
:10269000090716D4C168C943090712D46FF00801AD
:1026A0000161042020772068C0698007204602D09D
:1026B000FFF7AEFF04E000F089F8204600F01EF9B5
:1026C000257720680169C943C90617D4C168C94381
:1026D000C90613D46FF0100101610820207720682B
:1026E000C06910F4407F204602D0FFF791FF04E05C
:1026F00000F06CF8204600F001F9257720680169A8
:10270000C943C90708D1C168C943C90704D1891E93
:102710000161204600F016F920680169C9430906E5
:1027200009D4C168C943090605D46FF0800101616D
:102730002046FFF74BFD20680169C943490609D4CB
:10274000C168C943490605D46FF0400101612046C4
:1027500000F0F9F820680169C94389060BD4C16803
:10276000C943890607D46FF0200101612046BDE806
:102770007040FFF72CBD70BD10B586B00446142123
:102780006846FDF755FD0E492068884216D10D4870
:102790000021026842F010020260006800F01000A0
:1027A00005904FF4D44000900220CDE901010120B2
:1027B000CDE9031069460448FEF78EFD06B010BD52
:1027C000000001403038024000100240704770B5F0
:1027D000044690F83C000D4601280DD0012684F8EF
:1027E0003C60022084F83D0042B1042A18D0082A37
:1027F0002AD00C2A4DD139E0022070BD206801F0AA
:102800006FF82068816941F0080181612068816961
:1028100021F004018161206881692A69114311E076
:10282000206801F08DF82068816941F400618161C0
:102830002068816921F480618161206881692A6949
:1028400041EA0221816124E0206801F0AFF82068AC
:10285000C16941F00801C1612068C16921F004012A
:10286000C1612068C1692A69114311E0206801F043
:10287000D1F82068C16941F40061C1612068C16973
:1028800021F48061C1612068C1692A6941EA02219D
:10289000C16184F83D60002084F83C0070BD10B533
:1028A000040003D094F83D0010B107E0012010BDF2
:1028B000002084F83C00204600F00CF8022084F848
:1028C0003D00211D206800F087FF012084F83D00B5
:1028D000002010BD08B500680649884208D10648A6
:1028E000016841F001010160006800F00100009002
:1028F00008BD00000000014044380240704700005D
:1029000010B504460068012200F0CAFF0B49206898
:10291000884202D00A49884203D1416C41F4004107
:1029200041642068816801F00701062903D001682D
:1029300041F001010160002010BD000000000140D5
:10294000000401407047704770B5040004D094F84B
:102950003900002510B106E0012070BD84F8385020
:10296000204600F023F8242084F839002068C1684C
:1029700021F40051C160204601F098F820680169F7
:1029800021F4904101612068416921F02A014161EF
:102990002068C16841F40051C160E563202084F8DB
:1029A000390084F83A00002070BD0000F0B587B00F
:1029B000044614216846FDF73BFC304B2768002293
:1029C0002F490224032507262E489F4219D12C4B5C
:1029D00014331F6847F010071F601B6803F01003D3
:1029E00005930B6843F001030B60096802AB01F02B
:1029F000010105916902CDE9001483E8640069468C
:102A00001AE01F4BDFF880C01033674518D11F68EC
:102A100047F400371F601B6803F4003305930B680D
:102A200043F001030B60096801F0010105910C21DD
:102A3000CDE9001469461CE0FEF74EFC07B0F0BD7E
:102A400012488742FAD1186840F48020186018684C
:102A500000F480200590086840F0020008600868D3
:102A6000694600F0020005904FF44060CDE9000493
:102A7000074802AF87E86400DEE70000001001406D
:102A8000303802400000024000440040004800404E
:102A9000000402402DE9F843044690F839001F462F
:102AA00016460D46202850D1B5B1AEB194F8380085
:102AB00001284AD0012084F838004FF00008C4F8FB
:102AC0003C80212084F83900FEF7EEFCA684814684
:102AD000E68484F8388026E00120BDE8F883E08CA5
:102AE000401EE084A0684B46B0F5805F4FF00002C6
:102AF0004FF080012046009703D001F06BF8E8B951
:102B00000DE001F067F8C8B928882168C0F3080013
:102B10004860206908B16D1C05E0AD1C03E0216828
:102B200015F8010B4860E08C0028D8D14B460022F4
:102B300040212046009701F04DF808B10320CCE772
:102B4000202084F839000020C7E70220C5E70000F4
:102B5000FEB507461C4615460E460948FEF7AAFC78
:102B60004FF0FF300094CDE90150012000EB470108
:102B7000034632460248FEF71BFE0020FEBD000061
:102B800064050020FEB507461C4615460E4608485B
:102B9000FEF790FC4FF0FF300094CDE90150790032
:102BA000012332460248FEF7FFFE0020FEBD000072
:102BB00064050020FEE701684A69D24352050FD43C
:102BC0006FF480624A61002140F8301F2022427376
:102BD0008173026942F004020261017301207047AF
:102BE000002070472DE9F84F0446006889460B9D88
:102BF00001689846174641F48061016020680168C9
:102C000041F48071016000954FF0011B002259468C
:102C100020460A9B00F0DEF84FF4007A40B12068AD
:102C20000068C00501D5C4F840A00320BDE8F88FB6
:102C3000216809F0FE0008612B46284920460A9ABF
:102C400000F0FCF8F0BB20684169806900902A46DA
:102C500020460A9900F070F940B1206C04283AD15E
:102C60002068016841F40071016034E0FEB2B8F1FF
:102C7000010F09D02168380A08612A4620460A99BE
:102C800000F05AF90028E8D1206806612A4620465B
:102C90000A9900F051F90028DFD12068016841F459
:102CA0008071016000950022594620460A9B00F081
:102CB00091F80028B3D1216809F0FF0040F001002D
:102CC000086100E007E02B46044920460A9A00F01C
:102CD000B5F80028AAD00120A8E7000002000100F2
:102CE0002DE9F843044600680D46DDE908970168C0
:102CF0009846164641F4807101604B4600224FF021
:102D000001112046009700F065F848B1206800687E
:102D1000C00502D54FF4007020640320BDE8F8839D
:102D2000216805F0FE0008613B464A4615492046E9
:102D300000F084F888B920684169806900903A46BB
:102D40004946204600F0F8F848B1206C042804D128
:102D50002068016841F4007101600120DEE7F5B2EE
:102D6000B8F1010F09D02168300A08613A46494696
:102D7000204600F0E1F80028E7D120680561002036
:102D8000CCE700000200010070B516460D4604466F
:102D90000DE02046FFF70FFF08B1012070BD681C51
:102DA00005D0FEF781FB801BA84207D835B120680B
:102DB0004069C0434007ECD4002070BD002044F8B7
:102DC000300F20216173A073216941F0200121613E
:102DD0002073E2E72DE9F0471E4690460D46044673
:102DE000C1F30747DDF8209008E0701C06D0FEF71D
:102DF0005BFBA0EB0900B0420FD876B12068012F31
:102E000018D0806925EA00000004000C14D00021CD
:102E10004145EAD00020BDE8F087002044F8300F9B
:102E200020216173A073216941F020012161207389
:102E30000120F0E74069E5E70121E9E72DE9F047E6
:102E40009A4691460E46044600254FF02008C1F3ED
:102E5000074725E020684069C043400514D4206836
:102E6000016841F40071016021686FF4806048617D
:102E7000256384F83D8084F83E50206C40F00400C7
:102E8000206484F83C501FE0B9F1FF3F08D0FEF702
:102E90000BFBA0EB0A0149450CD8B9F1000F09D092
:102EA0002068012F13D0806926EA00000004000C7E
:102EB0000BD0CFE744F8305F84F80D80A57320690C
:102EC00040F02000206125730120BDE8F0874069B3
:102ED000EAE72DE9F041002590460E4604462027FA
:102EE00017E04069C043C0060CD454F8301B6FF0A3
:102EF0001000486144F810596777A577206A20626E
:102F0000257717E0FEF7D0FAA0EB0800B04208D80A
:102F10003EB120684169C9434906E2D40020BDE8BA
:102F2000F08144F8305F6773A573206940F020009A
:102F3000206125730120F2E770B516460D46044660
:102F40000DE02046FFF737FE08B1012070BD681C78
:102F500005D0FEF7A9FA801BA84207D835B1206832
:102F60004069C0430006ECD4002070BD002044F846
:102F7000300F20216173A073216941F0200121618C
:102F80002073E2E72DE9FF414FF0FF352B460A227F
:102F9000D0217348FEF756FB014672A000F04EFEAA
:102FA0006F48FEF787FA014672A000F047FE4FF027
:102FB0008008012403AE8DF80C80009623466B2216
:102FC000D0216748CDE90145FEF7EEFC2B460A22E9
:102FD000D0216348FEF736FB014662A000F02EFECA
:102FE0004FF4FA70FEF766F95D48FEF763FA0146A2
:102FF00060A000F023FE8DF80C40009601236B22A8
:10300000D0215748CDE90145FEF7CEFC18208DF8B8
:103010000C00009601231B22D0215148CDE9014527
:10302000FEF7C2FC4E48FEF745FA014651A000F0FB
:1030300005FE00278DF80C70009601231C22D0217C
:103040004748CDE90145FEF7AFFC4548FEF732FAA7
:10305000014648A000F0F2FD13208DF80C00009608
:1030600001231922D0213E48CDE90145FEF79CFC01
:103070003B48FEF71FFA01463EA000F0DFFD8DF849
:103080000C70009601233822D0213548CDE9014546
:10309000FEF78AFC3248FEF70DFA014635A000F033
:1030A000CDFD8DF80C70009601236A22D0212C48AA
:1030B000CDE90145FEF778FC2948FEF7FBF901460A
:1030C0002CA000F0BBFD8DF80C700096012323228C
:1030D000D0212348CDE90145FEF766FC2048FEF7E4
:1030E000E9F9014623A000F0A9FD8DF80C800096B7
:1030F00001233722D0211A48CDE90145FEF754FCBF
:10310000192000F043F81648FEF7D4F9014619A03B
:1031100000F094FD75208DF80C0002460096012306
:10312000D1210F48CDE90145FEF742FB9DF80C1077
:1031300013A000F083FD0A48FEF7BCF901460DA07C
:1031400000F07CFD8DF80C70009601236C22D021DC
:103150000348CDE90145FEF727FCBDE8FF810000EB
:10316000640500207374617475732069732025648D
:103170000A000000666C6167202558200A000000E4
:103180004944206973202558200A00001FB50021FA
:103190008DF80C100121BC2802D38DF80C1012E020
:1031A000622801D302200CE02A2801D3032008E082
:1031B000142801D3042004E00A2801D3052000E0EC
:1031C00006208DF80C0003AACDE900214FF0FF3056
:1031D000029001231A22D0210248FEF7E5FB04B039
:1031E00010BD0000640500207FB50025154800953E
:1031F0000195029512490395016001244FF4803135
:103200000461C0E90115047680F820500E49C0E938
:103210000A15C560C46180F830404461FDF7BFFD08
:1032200008B1FDF772FC04208DE8310069460548BD
:10323000FDF76EFC002801D0FDF767FC7FBD0000A4
:1032400000200140BC0400200100000F094808B51F
:10325000016841F4800101600068002200F48000F0
:10326000009011463820FEF7D3FCBDE80840382016
:10327000FEF7C0BC303802402DE9F04186B0142181
:103280006846FCF7D5FF32480024016841F0100180
:103290000160016801F010010591016841F08001B1
:1032A0000160016801F080010591016841F00401AD
:1032B0000160016801F004010591016841F001011C
:1032C0000160016801F001010591016841F002010E
:1032D0000160016801F002010591016841F00801F7
:1032E000016000681B4E00F00800059000220F21CD
:1032F0003046FEF7D4F8184F0022FF213846FEF77B
:10330000CEF8DFF85880002203214046FEF7C7F8C8
:103310000F2000900125CDE9015469463046039401
:10332000FDF7DAFFFF200090CDE9015469463846E9
:103330000394FDF7D1FF03200090CDE901546946C5
:1033400040460394FDF7C8FF06B0BDE8F0810000D9
:10335000303802400010024000080240000C0240D9
:103360000D4810B50B4901600C49416000214FF434
:1033700080428160C0E9031241618161C1610162E3
:10338000FEF79CF8002803D0BDE81040FDF7BDBB58
:1033900010BD00000054004064050020A08601001C
:1033A0001FB5002110480091019102910D4A03912F
:1033B00002605422C0E9012144F62062C0E90321E1
:1033C0008161FEF777FF08B1FDF79FFB4FF4805056
:1033D000009069460448FEF7CCFF002801D0FDF7B5
:1033E00094FB1FBD00180040F806002010B592B0F5
:1033F00000240F941C2168461094FCF719FF20212B
:1034000007A8FCF715FF2C482A4901605421C0E9A0
:1034100001144FF4FA61C0E9031444618461FFF7B9
:103420003EFA08B1FDF771FB0F940FA922481094E2
:10343000FEF7F8FE08B1FDF768FB6020CDE9000457
:103440000294039404940594002269461A48069451
:10345000FFF7BDF908B1FDF758FB0422694616488D
:10346000FFF7B5F908B1FDF750FB0822694612488D
:10347000FFF7ADF908B1FDF748FB0C2269460E488D
:10348000FFF7A5F908B1FDF740FB079408940994EC
:103490004FF400500A94CDE90B4007A906480E945A
:1034A000FEF796FE08B1FDF730FB0348FFF764F91D
:1034B00012B010BD00000140B805002010B58CB05E
:1034C00024216846FCF7B4FE0024154809944FF007
:1034D00080410A94C0E900144FF6FF71C0E902412F
:1034E000046184610320CDE900040120CDE90204D8
:1034F0000494CDE905400794694609480894FEF70D
:10350000A3FF08B1FDF701FB099409A904480A9437
:10351000FEF788FE002801D0FDF7F7FA0CB010BDC9
:10352000F805002010B58CB024216846FCF780FE19
:1035300000241548099413490A94C0E900144FF671
:10354000FF71C0E90241046184610120CDE90004FA
:10355000CDE902040494CDE90540079469460A4880
:103560000894FEF771FF08B1FDF7CFFA099409A995
:1035700005480A94FEF756FE002801D0FDF7C5FA6B
:103580000CB010BD000400403806002010B58CB00F
:1035900024216846FCF74CFE002415480994134981
:1035A0000A94C0E900144FF6FF71C0E902410461BA
:1035B00084610120CDE90004CDE902040494CDE941
:1035C0000540079469460A480894FEF73DFF08B194
:1035D000FDF79BFA099409A905480A94FEF722FE13
:1035E000002801D0FDF791FA0CB010BD0008004092
:1035F0007806002010B586B0002417480094019486
:103600000294039404941349059401605421C0E981
:10361000011441F28831C0E903148461FEF74AFEC7
:1036200008B1FDF772FA4FF48050009069460A48DD
:10363000FEF79FFE08B1FDF768FA049404A9064856
:103640000594FEF7EFFD002801D0FDF75EFA06B005
:1036500010BD0000000C0040B80600200C4810B55A
:103660000A4901604FF4E1314160002181600C2280
:10367000C160C0E904128161C161FFF765F90028EA
:1036800003D0BDE81040FDF740BA10BD0010014066
:10369000380700200C4810B50A4901604FF4E131A9
:1036A0004160002181600C22C160C0E90412816187
:1036B000C161FFF749F9002803D0BDE81040FDF7CC
:1036C00024BA10BD00440040780700200C4810B513
:1036D0000A4901604FF4E1314160002181600C2210
:1036E000C160C0E904128161C161FFF72DF90028B2
:1036F00003D0BDE81040FDF708BA10BD00480040F7
:10370000B8070020FEE7FEE770477047FEF718BADB
:1037100030B593B030216846FCF78AFD14210CA81F
:10372000FCF786FD1D480025016841F080510160CD
:10373000006800F0805011901948016841F4804100
:1037400001600068022400F4804011900120039081
:1037500010200490009406940820CDE90750A8207A
:10376000CDE9090404200B906846FEF76DFB08B113
:1037700072B6FEE70CA90F2081E831004FF4A0508B
:103780000F904FF48050109005210CA8FEF772FAAC
:10379000002801D072B6FEE713B030BD40380240B9
:1037A000007000400548016841F470010160034960
:1037B0004FF00060803908607047000088ED00E03D
:1037C0000148FEF726BF0000B80600200148FEF7BA
:1037D00020BF0000F8060020F0B50268254C264DF9
:1037E000264E274F274B4FF0804CA04209D0604512
:1037F00007D0A84205D0B04203D0B84201D09842C9
:1038000004D122F0700E4A6842EA0E02A0421BD098
:10381000604519D0A84217D0B04215D0B84213D095
:10382000984211D0184DA8420ED0184DA8420BD086
:10383000174DA84208D0174DA84205D0164DA842F2
:1038400002D0164DA84203D122F44075CA682A431B
:103850004D6922F080022A4302608A68C2620A68C7
:103860008262A04201D0984201D10969016301211D
:103870004161F0BD0000014000040040000800402C
:10388000000C0040000401400040014000440140A1
:103890000048014000180040001C0040002000408B
:1038A00010B501F01F030121046A99408C430462A2
:1038B000016A9A401143016210BD10B5846842EA62
:1038C000032224F47F440A432243826010BD8268AD
:1038D00022F070020A4342F0070181607047000045
:1038E000F0B5026A22F001020262036A426884694A
:1038F000124E24F073050C682C4323F002058B68EC
:103900002B430D4DA84201D0B04205D123F008074A
:10391000CB683B4323F00403A84201D0B04205D159
:103920004D6922F4407215438A692A4342608461DA
:10393000496841630362F0BD00000140000401409A
:10394000F0B5026A22F010020262026A43688469DA
:103950000D6824F4E64444EA05248D6822F0200230
:1039600042EA05120F4D104EA84201D0B04206D1D6
:10397000CF6822F0800242EA071222F04002A842F9
:1039800001D0B04207D14D6923F4406343EA850377
:103990008D6943EA850343608461496881630262FB
:1039A000F0BD00000000014000040140F0B5026AD3
:1039B00022F480720262026A4368C46922F40072CF
:1039C00024F073050C68124E2C438D6842EA0522E0
:1039D0000E4DA84201D0B04206D1CF6822F4006259
:1039E00042EA072222F48062A84201D0B04207D105
:1039F0004D6923F4405343EA05138D6943EA0513E7
:103A00004360C4614968C1630262F0BD00000140C7
:103A10000004014030B5026A22F480520262046A56
:103A20004268C3690D6823F4E64343EA05238D68C1
:103A300024F4005444EA0534084DA84202D0084D4D
:103A4000A84204D14D6922F4804242EA85124260C4
:103A5000C36149680164046230BD00000000014098
:103A60000004014010B5036A046A24F001040462F2
:103A7000846924F0F00444EA021423F00A020A43A1
:103A80008461026210BD10B5036A23F01003036263
:103A90008369046A23F4704343EA023224F0A003EA
:103AA00043EA01118261016210BD00002DE9F0417D
:103AB000044600680169E26821F440511143016144
:103AC0002169A068E26908436169114308432168DC
:103AD000CA6849F20C639A430243CA60206841698C
:103AE000A26921F4407111434161E06919276425FD
:103AF0003226B0F5004F354A354920684FF00008AE
:103B000006D0884201D0904236D1FEF75DF935E00B
:103B1000884201D0904202D1FEF756F901E0FEF74B
:103B200043F961684A18A0FB070148EB0803FCF75A
:103B300047FB0146B0FBF5F00201B1FBF5F06FF079
:103B40001803584301EB800006EBC000B0FBF5F012
:103B500000F0F80002EB4002B1FBF5F0584301EB36
:103B6000800006EBC000B0FBF5F000F00700216814
:103B700010448860BDE8F081FEF716F961688B0F8C
:103B80008A00A0FB0701FCF71BFB0146B0FBF5F028
:103B90006FF01802504301EB800006EB0010B0FB01
:103BA000F5F000F0F002B1FBF5F002EB0012B1FB12
:103BB000F5F06FF01803584301EB800006EB00109E
:103BC000B0FBF5F000F00F00D1E700000014014059
:103BD000001001402DE9F041984617460E46044674
:103BE000069D1DE0681C1BD02DB1FDF75DFCA0EB10
:103BF0000800A84214D92068C16821F4D071C160BE
:103C00002068416921F001014161202084F83900D8
:103C100084F83A00002084F838000320BDE8F081E1
:103C20002068006836EA000004D00020B842D9D0ED
:103C30000020F3E70120F9E7FEE700000FB4054B91
:103C400010B503A9044A029800F0BEFD10BC5DF84F
:103C500014FB0000695000087C00002003B40198A8
:103C60004100009850EAC12018BF04204A0D18BF37
:103C700040F0010040F2FF72B2EB515F08BF40F02C
:103C80000200012808BF052002B070470907090E8D
:103C9000002804DB00F1E02080F80014704700F0F9
:103CA0000F0000F1E02080F8141D704700000000B4
:103CB00070B5C1482DED020B2DED0E8B82B0119D1C
:103CC00025F000449FEDBEDB9FEDBFEB84423EDB61
:103CD000A4F140511098A1F17F6108430FD0BC4876
:103CE000844202DC28D1109830B39DED100B02B055
:103CF000BDEC0E8B02B0BDE8704000F069BC9DEDDC
:103D0000100B53EC1D2B51EC100BFCF743FB9DEDFE
:103D1000100B41EC180B53EC1E2B51EC100BFCF765
:103D200039FB53EC182BFCF78EFA41EC100B02B068
:103D3000BDEC0E8B02B070BD012000F08DFC02B016
:103D4000BDEC0E8B02B0BDE8704000F055BCA14840
:103D50009FEDA18B844256DA9DED100BB4F1795F93
:103D60000ADA51EC100BFFF779FF042808BF00F0C6
:103D700053FC9DED100BDAE753EC102B51EC100BBC
:103D8000FCF708FB41EC190B95480621B0EE490AF7
:103D9000F0EE690A784400F09FFB53EC192B51ECCC
:103DA000100BFCF7F7FA41EC1A0B8E48B0EE490AFB
:103DB000F0EE690A0421784400F08EFB53EC192BD5
:103DC00051EC100BFCF7E6FA53EC182BFCF73BFA1E
:103DD00041EC100B51EC1A0B53EC102BFCF74CFB85
:103DE000CDE900019DED000B53EC102B9DED100B68
:103DF00051EC100BFCF7CEFA9DED101B53EC112B80
:103E0000FCF721FAD2E09DED100B51EC100B01F004
:103E10001FF953EC182BFCF7BAFA9FED730BCDE9A1
:103E2000000153EC102B9DED000B51EC100BFCF737
:103E3000B1FA41EC190B6E480621B0EE490AF0EEDA
:103E4000690A784400F048FB53EC192B51EC100B35
:103E5000FCF7A0FA41EC1B0B6648B0EE490AF0EE05
:103E6000690A0421784400F037FB53EC192B51EC1C
:103E7000100BFCF78FFA53EC182BFCF7E4F941EC2C
:103E80001C0B51EC190B01F001FD41EC180B5A48C9
:103E90009FED5BABA04222DC53EC1C2B51EC1B0BC7
:103EA000FCF7EAFACDE900019DED000B51EC180B8F
:103EB00053EC102BFCF76EFA53EC182BFCF7C3F9FC
:103EC00053EC1A2BFCF766FA53EC1D2BFCF75CFA4B
:103ED00053EC1E2BFCF75BFA41EC100B5FE08DED11
:103EE000008B002000909DED000B51EC180B53EC63
:103EF000102BFCF7A8F99DED000B41EC1E0B53ECC9
:103F0000102B51EC100BFCF745FA53EC192BFCF776
:103F10003EFA53EC1E2BFCF7AFFA41EC190B53ECB5
:103F20001C2B51EC1B0BFCF7A7FA41EC1B0B53ECC1
:103F30001A2B51EC190BFCF72DFA53EC1D2BFCF747
:103F400026FA41EC190B53EC1A2B51EC180BFCF729
:103F500021FA53EC1B2BFCF71DFA53EC192BFCF741
:103F600013FA9DED000B41EC180B53EC1A2B51EC9E
:103F7000100BFCF70FFA9FED249B53EC192BFCF769
:103F800006FA41EC100B51EC180B53EC102BFCF71C
:103F9000FBF953EC192BFCF7FAF941EC100B002D4F
:103FA0003FF7C5AE51EC100B81F0004141EC100B16
:103FB000BDE60000000000000000F03F000000002F
:103FC000075C143326A6913C182D4454FB21F93F7D
:103FD0000000F07F0000E03F000000000000F03F24
:103FE0004824000056240000000000000000E03FCC
:103FF0009A230000A82300003333EF3F00000000A5
:104000000000000000000040182D4454FB21E93F4F
:1040100070B59B482DED020B2DED068B079D25F00D
:104020000044A04218DC9748844202DC0AD106987A
:1040300040B19DED060BBDEC068B02B0BDE87040B3
:1040400000F0C6BA002DCCBF9FED8F0B9FED900BFB
:10405000BDEC068B02B070BD8F48A04215DD8F48C5
:10406000A042D8BF4FF0FF3458DD9DED060B51EC58
:10407000100BFFF7F3FD042808BF00F0CDFA9DED0B
:10408000060BBDEC068B02B070BD9DED060B51EC2E
:10409000100B00F0DDFFCDE9060181489FED828B1A
:1040A000A0423CDD8248A0421FDD00249FED82AB90
:1040B0009DED060B53EC1A2B51EC100BFCF7C3F8DB
:1040C0009DED060B41EC190B53EC1A2B51EC100B28
:1040D000FCF760F953EC182BFCF756F953EC192B4D
:1040E000FCF7CAF9CDE9060149E09DED060B012474
:1040F00053EC182B51EC100BFCF7A5F89DED060BBB
:1041000041EC190B53EC182B51EC100BFCF73CF95C
:1041100053EC192BFCF7B0F9CDE906012FE0684804
:10412000A0421FDD02249FED689B9DED060B53EC22
:10413000192B51EC100BFCF72DF953EC182BFCF755
:1041400082F89DED060B41EC180B53EC192B51EC4A
:10415000100BFCF719F953EC182BFCF78DF9CDE98E
:1041600006010CE09DED060B032453EC102B9FED94
:10417000580B51EC100BFCF77FF9CDE906019DEDD2
:10418000060B53EC102B51EC100BFCF703F941EC30
:10419000180B53EC182BFCF7FDF841EC190B4E48AB
:1041A0000621B0EE490AF0EE690A784400F094F96D
:1041B00053EC182B51EC100BFCF7ECF841EC180BFE
:1041C0004648B0EE490AF0EE690A0521784400F04D
:1041D00083F953EC192B51EC100BFCF7DBF841EC95
:1041E000100B51EC180B53EC102B002C0EDAFCF7D3
:1041F0002AF89DED061B53EC112BFCF7CBF89DED37
:10420000061B53EC112BFCF7C2F835E0FCF71BF84A
:104210009DED061B53EC112BFCF7BCF841EC100B89
:104220002F48784400EBC40090ED001B51EC100BBC
:1042300053EC112BFCF7A8F89DED061B53EC112B4A
:10424000FCF7A2F841EC100B2648784400EBC400C0
:1042500090ED001B51EC100B53EC112BFCF797F871
:1042600041EC100B002DA2BFBDEC068B02B070BD5F
:1042700051EC100B81F0004141EC100B01E7000004
:10428000000010440000F07F182D4454FB21F93F3A
:10429000182D4454FB21F9BF0000DC3F0000203EF4
:1042A0000000F33F00000000000000000000F03FAD
:1042B0000000E63F00000000000000000000004099
:1042C0000080034000000000000000000000F83FF4
:1042D000000000000000F0BFEA200000A020000065
:1042E0002A200000E21F000070B56B4E2DED040B7C
:1042F0002DED028B82B0DDF81CC0DDE905235C42A8
:104300002CF000411C4341EAD474049D22F000408B
:10431000B44205D86C422C4340EAD474B4420BD961
:104320009DED061B9DED040B02B0BDEC028B04B0AD
:10433000BDE8704000F056B9ACF14054A4F17F6480
:104340001C430BD0022404EAAC7444EAD274054343
:104350009FED538B9FED542B07D015E09DED040B83
:1043600051EC100B00F0C7FD42E0002C11BF012CF6
:104370009DED040B02B0BDEC028B04BF04B070BD18
:10438000022C38D0032C3BD00B439FED491B9FEDF3
:104390004A0B0AD0B14218D1B04209D121F0804174
:1043A00020F08040079105900FE0002A15DA10E018
:1043B000434B7B44002C08BF93ED000B0DD0012C28
:1043C00010D0022C17D0032C1AD0B0421DD1002AD5
:1043D00003DAB0EE410AF0EE610A02B0BDEC028BE6
:1043E00004B070BD93ED000B51EC100B81F0004157
:1043F00041EC100BF1E7B0EE480AF0EE680AECE78A
:10440000B0EE420AF0EE620AE7E7401A00153C28D7
:10441000C8BF8DED000B19DCBCF1000FBEBF10F161
:104420003C0F9FED290B8DED000B0FDB9DED060B77
:1044300053EC102B9DED040B51EC100BFCF71CF80A
:1044400000F006FE00F057FDCDE90001002C08BF8A
:104450009DED000BC1D0012C10D0022C9FED1C0B48
:1044600053EC102B9DED000B51EC100B0DD0FBF716
:104470008BFF53EC182BFBF787FFB9E7019880F00F
:10448000004001909DED000BA7E7FBF77DFF53EC8B
:10449000182BFBF77CFFABE70000F07F000000006B
:1044A000182D4454FB210940182D4454FB2109C008
:1044B000182D4454FB21F9BF182D4454FB21F93F1A
:1044C000121F0000000000000000000000000000BB
:1044D000075C143326A6A13C70B504462DED028B73
:1044E0004D1E00EBC500B0EE408AF0EE608A90ED04
:1044F000000B35F0060017D053EC182B51EC100BC5
:10450000FBF748FF41EC100B6D1E04EBC50090ED6E
:10451000001B51EC100B53EC112BFBF794FE41ECFC
:10452000100B35F00600E7D1022D36D0042D1CD03B
:10453000062D1CBFBDEC028B70BD53EC182B51EC4B
:10454000100BFBF727FF94ED0A1B53EC112BFBF725
:104550007AFE53EC182BFBF71DFF94ED081B53EC70
:10456000112BFBF770FE41EC100B53EC182B51ECA8
:10457000100BFBF70FFF94ED061B53EC112BFBF711
:1045800062FE53EC182BFBF705FF94ED040B53EC84
:10459000102BFBF758FE41EC100B53EC182B51EC91
:1045A000100BFBF7F7FE94ED021B53EC112BFBF7FE
:1045B0004AFE53EC182BFBF7EDFE94ED001B53EC79
:1045C000112BFBF740FEBDEC028B41EC100B70BDD4
:1045D00010B553EC102B51EC100BFBF734FE41ECF3
:1045E000100B10BD10B553EC112B51EC100BFBF759
:1045F0002AFE41EC100B10BD9FED050B10B553ECDE
:10460000102B51EC100BFBF737FF41EC100B10BDDA
:1046100000000000000000009FED050B10B553ECFA
:10462000102B51EC100BFBF7B5FE41EC100B10BD3D
:10463000000000000000001002E008C8121F08C1BE
:10464000002AFAD170477047002001E001C1121F13
:10465000002AFBD170470000014908607047000044
:10466000800000202DE9FF5FDDE90220010DDDF86B
:1046700038B0024318D044F61050A1F2FF31414344
:104680000D140F98012820D0A5EB0B00401C5FEA09
:10469000000A4FF00004474EDFF81C91A046504638
:1046A00016D5CAF1000728E00F98012443A201287B
:1046B00008D0002100980F9BC0E90021C0E9024307
:1046C000BDE8FF9F6FEA0B01F4E7CBF10000DEE7E6
:1046D000074612E0F80707D02246334640464946CF
:1046E000FBF758FE80468946224633461046194657
:1046F000FBF750FE04460E467F10002FEAD1DDE99D
:104700000201BAF1000F42464B4602DAFBF742FEC5
:1047100001E0FBF7B1FE04460E460022284BFCF7F1
:104720003DF803D84FF0FF30014607E00022254B4B
:1047300020463146FBF787FDFCF717F8102409E007
:10474000002C0ADB0A220023FBF73AFD019B3032E2
:104750001A55641E50EA0102F2D1641C019AC4F198
:10476000110314440F9A012A03D0012208430DD1EA
:104770000AE0084304D000204FF0110B0F9080E7AF
:10478000A3EB0B056D1E0DE05B4504DD4FF0000251
:1047900005F1010504E003DA4FF00002A5F101057F
:1047A000002AECD000980F99C0E90231C0E9004519
:1047B00086E70000000024400000F03F30000000C9
:1047C0000000F0430000E03F2DE9FF4F95B09B460D
:1047D0008946064600250FE2252877D10024274682
:1047E000F84A0121059400E0044316F8013F203BFC
:1047F00001FA03F01042F7D130782A2811D06FF077
:104800002F033078A0F13002092A16D8059A44F017
:10481000020402EB820203EB42021044761C059074
:10482000EFE759F8042B0592002A03DA504244F4CA
:104830000054059044F00204761C30782E2816D1DE
:1048400016F8010F44F004042A280DD06FF02F024F
:104850003078A0F13003092B09D807EB870302EB6E
:104860004303C718761CF3E759F8047B761C3078AD
:104870006C280FD006DC4C2817D068280DD06A2889
:1048800014D104E0742810D07A280FD10DE044F43C
:1048900000140AE044F4801401E044F440147278F7
:1048A000824202D104F58014761C761C307866288A
:1048B0000BD013DC582877D009DC002875D04528A8
:1048C000F6D04628F4D047281AD19DE118E0632895
:1048D00035D0642879D0652812D195E1702873D03D
:1048E00008DC6728F1D069286FD06E280DD06F28BA
:1048F00006D1B5E073282CD0752875D0782874D0EF
:104900005A46179990476D1C75E1C4F3025002286E
:1049100009D003280DD0D9F8001004280DD00D605F
:1049200009F1040967E1D9F80010EA17C1E900525A
:10493000F6E7D9F800100D80F2E70D70F0E719F8EE
:10494000041B8DF8001000208DF80100EA460120BC
:1049500003E059F804AB4FF0FF3061074FF000015E
:1049600002D40DE008F101018846B9420FDA804512
:10497000F8DB1AF808100029F4D108E008F1010169
:1049800088468142FADB1AF808100029F6D105980A
:104990005B46A0EB080721463846179A00F094FAC8
:1049A000284400EB080507E04DE029E10DE01AF886
:1049B000010B5A4617999047B8F10108F7D25B46A8
:1049C00021463846179A13E142E00A220092C4F3C6
:1049D00002524FF0000A022A08D059F804CB032AE9
:1049E0004FEAEC710AD00DE029E02AE009F1070155
:1049F00021F00702F2E802C1914609E00FFA8CFCAF
:104A00004FEAEC71042A03D14FFA8CFC4FEAEC71A7
:104A1000002907DA0A460021DCF1000C61EB0201F3
:104A20002D2202E0220504D52B228DF8042001223C
:104A300003E0E20701D02022F7E7904659E00A217F
:104A400002E010220DE010214FF0000A00910BE06F
:104A500010224FF0000A44F004040827009203E0FB
:104A600008224FF0000A0092C4F30252022A05D035
:104A700059F804CB0021032A08D009E009F1070105
:104A800021F00702F2E802C1914605E01FFA8CFC12
:104A9000042A01D10CF0FF0C4FF00008220728D5A2
:104AA000702806D0009B83F0100353EA0A0305D058
:104AB0000EE040228DF80420012208E05CEA0102A9
:104AC00006D030228DF804208DF805000222904691
:104AD000009B83F0080353EA0A030AD15CEA01024F
:104AE00001D1620705D530228DF804204FF001086E
:104AF0007F1E582804D034A003900EA802900DE029
:104B000036A0F9E753466046009AFBF759FB844606
:104B10000398825C0298401E029002705CEA0100D9
:104B2000F0D1029806A9081A00F1200A600702D500
:104B300024F4803400E00127574502DDA7EB0A008A
:104B400000E0002000EB0A01009005984144401A63
:104B50000590E00306D45B462146179A059800F0BD
:104B6000B3F90544002706E001A85A46C05D17992D
:104B700090476D1C7F1C4745F6DBE0030CD55B4678
:104B80002146179A059800F09FF9054404E030206B
:104B90005A46179990476D1C0099481E00900029AD
:104BA000F5DC08E0029802995A460078491C029107
:104BB000179990476D1CBAF10001AAF1010AF1DCC6
:104BC00065E10000092801003031323334353637D1
:104BD0003839616263646566000000003031323349
:104BE00034353637383941424344454600000000E9
:104BF00000F058F90544761C307800287FF4ECADBD
:104C000019B02846BDE8F08F620700D4062709F1E5
:104C1000070222F0070CFCE80223E14603F00048FB
:104C20005FEA080C02D00FF2702C0DE05FEA045C22
:104C300002D50FF2682C07E05FEAC47C02D00FF2C5
:104C4000602C01E0AFF2700C4FF0FF3823F000430E
:104C5000CDF850C065280CD006DC452809D0462880
:104C60001DD047283DD13DE0662818D067287ED169
:104C700038E00021112F01DB112000E0781CCDE984
:104C8000000106A90EA8FFF7EDFCDDE90F010E9A61
:104C900003910021009207F1010A04914DE04FF0C9
:104CA00000400097CDE9011006A90EA8FFF7DAFC35
:104CB000DDE90F0203920E9B11990022DDF80CA092
:104CC0000093049211B9791C00EB010AB7EB0A00BA
:104CD00004D4C0F1FF3007F1010A0490AAEB0700E9
:104CE000019044E0012F00DA01270021112F01DD9E
:104CF000112000E03846CDE9000106A90EA8FFF713
:104D0000B1FCDDE90F010E9A03910021049100929C
:104D1000BA4621070CD40399514500DA8A46BAF104
:104D2000010F05DD009AAAF10101515C302908D07C
:104D3000B84202DA10F1040F06DA0121CDE90110C0
:104D400015E0AAF10101E9E7002805DC0499014416
:104D50000491AAEB000102E0411C514500DD8A46A6
:104D60000499401A401C01904FF000400290200727
:104D700004D40198504501DBCDF8048000208DF863
:104D80004F0002980DF14F07B0F1004F25D02B20B6
:104D90000E9002984FF0020800280CDA4042029070
:104DA0002D200E9007E00A210298FBF703FC30311A
:104DB000029007F8011DB8F10001A8F10108F2DC2A
:104DC00002980028EFD1791E0E980870307800F014
:104DD000200040F0450007F8020D12A8C01B00F1AA
:104DE00007081498007800B1012000EB0A0101982F
:104DF00001EBE07105984144401A401E0590E00324
:104E000006D45B462146179A059800F05DF80544E4
:104E10001498007818B15A46179990476D1CE00312
:104E200024D55B462146179A059800F04DF80544B5
:104E30001CE00498002807DBDDE90301884203DD5C
:104E40000098405C179901E0179930205A46904726
:104E5000049805F10105401C04900198401E019042
:104E600004D12E205A46179990476D1CBAF10001C3
:104E7000AAF1010ADDDC05E017F8010B5A46179983
:104E800090476D1CB8F10001A8F10108F4DC5B4605
:104E90002146179A0598ABE62D0000002B00000074
:104EA000200000002DE9F041044600251E4617466B
:104EB000880404D405E039462020B0476D1C641EE8
:104EC000F9D52846BDE8F0812DE9F04104460025DA
:104ED0001E469046C80301D5302700E020278804ED
:104EE00004D505E041463846B0476D1C641EF9D52F
:104EF0002846BDE8F08110B541EC100BFFF788F8AB
:104F000051EC100B10BD00002DE9FF4F89B0174682
:104F1000DDE9165200244D4E884681462C80A2467B
:104F2000B07B694600F056FA4FF0FF3B18B1584687
:104F30000DB0BDE8F08F708910F0140F3ED00099CD
:104F400009BA21F0FF029DF803100A433A60019963
:104F50009DF8073009BA21F0FF0119437960029BDF
:104F60009DF80B401BBA23F0FF032343BB60039C57
:104F7000121424BA24F0FF0C9DF80F4009144CEAD7
:104F8000040C1024C7F80CC01B144FEA2C4712FB6A
:104F900002F211FB012113FB03F217FB072211445C
:104FA000A1F17061B1F1007F04D900F05BFAA5F8BE
:104FB00000A0BCE7298841F4807129804206694637
:104FC00011D50A19A41D13885BBAA8F800305388BC
:104FD0005BBAA8F80230928852BAA8F804202A884E
:104FE00042F008022A8010F4C07F11D00A19A41DD3
:104FF00013885BBAA9F8003053885BBAA9F802306D
:10500000928852BAA9F804202A8842F070022A80B5
:10501000800716D00C44E07800F0C00500F03F0196
:105020006078C00706D0C80801F007013268491C43
:1050300002B190476078000703D5716809B1A809EB
:1050400088470C9800F01CF8002071E784040020C9
:1050500082B0CDE9000121F0004001909DED000BF0
:1050600002B051EC100B704713B54FF6FF730122DD
:1050700069460248FDF70EFD00981CBD3807002068
:10508000704700002DED028B84B0FCF761FDFEF748
:105090003FFBFEF7F1F8FEF7D9F8FEF7A5F8FEF7AB
:1050A0000DFAFEF73FFAFEF771FAFEF7A3FAFEF7E4
:1050B000D5FAFEF7EFFAFEF709FBFEF797F9FEF7D0
:1050C0004FF9FEF76DF94A48FDF742F94948FDF7F7
:1050D0003FF93C214848FDF76DFA3C214748FDF770
:1050E00069FA3C214648FDF765FA3C214048FDF746
:1050F00061FA00214348FDF703FC04214148FDF714
:10510000FFFB08213F48FDF7FBFB0C213D48FDF765
:10511000F7FB00F0CDFA0A223B493C48FBF7C0FE02
:10512000FDF730FF3A4C002201212046FCF7B7F989
:10513000012202212046FCF7B2F9DFF8CCA09FED56
:10514000358ADFED358ADFF8D480A1464FF47A7BCB
:1051500033A0FEF773FD5846FCF7ACF801214C462E
:105160004846FCF795F902212046FCF791F900200A
:1051700000F05AFA00F026FA00F02AFB9AED000A35
:105180004446B8EE400A20EE080A20EE280A88EDD0
:10519000000A10EE100AFBF7DEF941EC100B24A018
:1051A00053EC102BFEF74AFD1C4A0C32111F081F4E
:1051B00000F052F8C0B9A046E068FBF7CCF906460B
:1051C0000F46D8F80800FBF7C6F904460D46D8F894
:1051D0000400FBF7C0F98DE8F00041EC100B16A0BD
:1051E00053EC102BFEF72AFD0520FCF763F8AFE720
:1051F000B8060020F8060020F80500203806002038
:1052000078060020B805002094040020BC0400208B
:10521000000C024033335340000080395C00002012
:1052200068656C6C6F2C7869616F6261690D0A004A
:1052300025660D0A0000000070697463683A202535
:10524000662020726F6C6C3A202566202079617789
:105250003A202566200D0A0070B50D462DED0C8B09
:105260008EB006460CA902A81446B7EE00BACDE9E6
:1052700000010BAB03AA09A907A8FFF745FE20B15F
:1052800001200EB0BDEC0C8B70BDBDF80800C00550
:105290007ED59DED030AF8EEC00A9FED4A0AB0EEF6
:1052A00000CA60EE809ADDED040AF8EEE00A69EECD
:1052B0008CCA20EE808ADDED050AF8EEE00A60EE89
:1052C000808ADDED060AF8EEE00A20EE809AB8EE5C
:1052D000000A68EE00BA2BEE890A0CEEA80A10EE5E
:1052E000100AFBF738F941EC100BFEF7E1FC9FEDDB
:1052F00036AB51EC100B53EC1A2BFBF74BF8FBF7CA
:105300003DF92BEE880A28EE8CDA30600DEE680A43
:1053100030EE0B0A10EE100AFBF71DF92DEE090A0C
:1053200041EC1B0B0CEE880A10EE100AFBF713F988
:1053300041EC100BB0EE4B1AF0EE6B1AFEF7D4FFF7
:1053400053EC1A2B51EC100BFBF724F8FBF716F972
:1053500029EEA90A286008EE080A08EEE80A09EE14
:10536000490A10EE100AFBF7F6F828EE280A41EC7D
:105370001B0B09EE890A20EE0C0A10EE100AFBF74F
:10538000EAF841EC100BB0EE4B1AF0EE6B1A00E0AD
:1053900016E0FEF7A9FF53EC1A2B51EC100BFAF7AD
:1053A000F9FFFBF7EBF800EE100A094884ED000A5C
:1053B000D0ED000A002030EE600A84ED000A60E7BC
:1053C00002205EE7000080306666666666A64C4096
:1053D000300000202DE9F843214C0646174694F88A
:1053E000240089464FF0FF3890B3A07A80B320683C
:1053F0006B460222817A60680078FDF7A9FB38BB12
:10540000BDF8000045BAB54202D2002038701FE056
:1054100060684188B5EB510F11D9216800786B465F
:10542000497C0122FDF794FB90B99DF80000C0066D
:1054300005D500F017F86FF00100BDE8F88320688B
:10544000F2B24B46C17A60680078FDF781FB08B183
:105450004046F2E7B5FBF6F0401E38700020ECE75E
:1054600000000020F8B5564C4FF0FF36A07A002817
:105470007DD000258DF8005020686B460122C17B4D
:1054800060680078FDF77EFB002870D120686B46CD
:105490000122417960680078FDF774FB002866D12D
:1054A00020686B460122017960680078FDF76AFB8D
:1054B00000285CD194F82400E0B30C208DF80000A3
:1054C00020686B460122017960680078FDF75AFB7D
:1054D000002872D13220FBF7EDFEC0208DF80000CD
:1054E000A07AC00702D0E0208DF8000020686B464B
:1054F0000122017960680078FDF744FB00285CD147
:10550000607C18B102208DF8000001E08DF8005099
:1055100020686B460122C17B60680078FDF732FB92
:1055200028BB8DF8005020686B46012241796068E5
:1055300000783EE0FFE704208DF8000020686B460D
:105540000122017960680078FDF71CFB78B9A07C26
:1055500090B9A07AC0070FD05FF060008DF800000E
:1055600020686B46012201796068007800E024E041
:10557000FDF708FB08BB01E04020EFE73220FBF716
:1055800099FE607C18B101208DF8000001E08DF8D3
:10559000005020686B460122C17B60680078FDF7EF
:1055A000F1FA50B92068064B012241796068103346
:1055B0000078FDF7E7FA002800D03046F8BD00007B
:1055C000000000202DE9F047002000F02DF8DFF862
:1055D000549000245FF0000609EBC60000EBD400F5
:1055E000002507784FFA86F8380604EB050041B22B
:1055F00001D5012200E00022404600F035F878068F
:105600006D1C070EEDB2082DEED3761CF6B2802E7F
:10561000E2D30834E4B2402CDCD3BDE8F04700F01C
:10562000D7B800006E5D0008F0B500210D4BFF26D5
:105630000C46002201280FD003EBC20580B16F5C3D
:10564000C7F1FF076F54521CD2B2802AF2D3491C13
:10565000C9B20829EDD3F0BD03EBC2056E54F2E7E1
:105660006C54F0E78400002070B5802817D2002920
:1056700015DB3F2913DCCB1701EB5375C5F3C703CB
:1056800025F007050124094E491B8C4006EBC0009C
:10569000012A05D0C15C022A05D0A143C15470BDC6
:1056A000C15C2143FAE76140F8E700008400002074
:1056B00010B5464C002204212046FBF7F0FE4FF4C3
:1056C000FA70FBF7F7FD012204212046FBF7E7FE05
:1056D0000021AE2000F0ACF80021084600F0A8F848
:1056E0000021102000F0A4F80021402000F0A0F8D4
:1056F0000021812000F09CF80021CF2000F098F8D4
:105700000021A12000F094F80021C82000F090F8BA
:105710000021A62000F08CF80021A82000F088F8D5
:1057200000213F2000F084F80021D32000F080F811
:105730000021084600F07CF80021D52000F078F820
:105740000021802000F074F80021D92000F070F8CA
:105750000021F12000F06CF80021DA2000F068F858
:105760000021122000F064F80021DB2000F060F836
:105770000021402000F05CF80021202000F058F8C3
:105780000021022000F054F800218D2000F050F894
:105790000021142000F04CF80021A42000F048F86B
:1057A0000021A62000F044F80021AF2000F040F8CE
:1057B0000021AF2000F03CF80020FFF735FF00216A
:1057C000BDE81040084600F01DB80000001002407F
:1057D00070B50B4E00242146002000F013F8002580
:1057E00006EBC5000121005D00F022F86D1CEDB252
:1057F000802DF5D3641CE4B2082CECD370BD0000FE
:105800008400002010B5801CC4B2B031C8B20021A1
:1058100000F00EF8102040EA1410002100F008F803
:1058200004F0F000BDE81040002100F001B80000D5
:1058300070B5154E054609B1012200E0002208218D
:105840003046FBF72CFE0024002201213046FBF7F6
:1058500026FE280601D5012200E000220221304662
:10586000FBF71DFE012211463046FBF718FE6806C5
:10587000641C050EE4B2082CE6D33046BDE8704047
:1058800001220821FBF70BBE0010024000B52DEDF0
:10589000048B83B041EC190BFAF7AAFF41EC180B0B
:1058A00018EE100A18EE901A8DED008B002818BF24
:1058B0000120084320F00040C0F17F6000F1E0408B
:1058C000C00F14D019EE101A19EE900A8DED009B3E
:1058D000002918BF0121084320F00040C0F17F607B
:1058E00000F1E040C00F04BF0120FEF7B5FE51EC0F
:1058F000180B03B0BDEC048B00BD000000000000DD
:10590000000000000000000000003F400000000018
:10591000000000003000400030004000000009009E
:105920000BC03D000BC03D00090018C024407FE0C3
:10593000224031800000180024C01B000D8032403E
:10594000018003801C4027401C800740004010005D
:1059500060000000000000000000000000000000E7
:105960001F80204040200000402020401F80000079
:105970000000090006001F80060009000000040066
:1059800004003F80040004000000001000600000DC
:1059900000000000000004000400040004000400F3
:1059A0000000000000400000000000000000002097
:1059B00001C006003800400000001F802040204049
:1059C00020401F800000000010403FC00040000049
:1059D000000018C0214022402440184000001080E0
:1059E0002040244024401B80000002000D001100D4
:1059F0003FC0014000003C802440244024402380DC
:105A000000001F8024402440344003800000300008
:105A1000200027C03800200000001B8024402440C4
:105A200024401B8000001C0022C0224022401F8016
:105A3000000000000000084000000000000000001E
:105A400000000460000000000000000004000A00E4
:105A500011002080404009000900090009000900E8
:105A6000000000004040208011000A0004001800DF
:105A7000200023402400180000001F802040274001
:105A800029401F400000004007C039000F0001C03E
:105A9000004020403FC0244024401B8000001F8065
:105AA0002040204020403080000020403FC0204067
:105AB00020401F80000020403FC024402E4030C0C6
:105AC000000020403FC024402E00300000000F00A6
:105AD0001080204022403380020020403FC004005C
