:020000040800F2
:10000000300500204501000803200008111E0008EB
:10001000012000084D0900087526000800000000B6
:100020000000000000000000000000002720000881
:100030004F090008000000002520000829200008C2
:100040005F0100085F0100085F0100085F01000810
:100050005F0100085F0100085F0100085F01000800
:100060005F0100085F0100085F0100085F010008F0
:100070005F0100085F0100085F0100085F010008E0
:100080005F0100085F0100085F0100085F010008D0
:100090005F0100085F0100085F0100085F010008C0
:1000A0005F010008C52000085F0100085F0100082B
:1000B000D12000085F0100085F0100085F0100080F
:1000C0005F0100085F0100085F0100085F01000890
:1000D0005F010008692600085F0100085F01000851
:1000E0005F0100085F0100085F0100085F01000870
:1000F0005F0100085F0100085F0100085F01000860
:100100005F0100085F0100085F0100085F0100084F
:100110005F0100085F0100085F0100085F0100083F
:100120005F0100085F0100085F0100085F0100082F
:10013000DFF80CD000F0F8FB00480047652F0008FE
:10014000300500200648804706480047FEE7FEE7E6
:10015000FEE7FEE7FEE7FEE7FEE7FEE7FEE7FEE777
:100160007D20000831010008202A04DB203A21FA12
:1001700002F00021704721FA02F3D040C2F12002C0
:100180009140084319467047D2B201E000F8012BB4
:10019000491EFBD270470022F6E710B513460A4607
:1001A00004461946FFF7F0FF204610BDF0B480EA80
:1001B0000102D40F4200B2EB410F02D202460846C0
:1001C00011464A0042D0C30DDDB2C1F3C752AD1A89
:1001D000202D35DAC1F3160141F4000204B1524278
:1001E000C5F1200602FA06F12A411044B3EBD05FB4
:1001F00023D0C4B1012DA0EBC35009DCF0BC4FF0FB
:10020000004202EAC352DBB200F5000000F007BA78
:10021000400000F1807000EBC350A0F1807040EA14
:10022000D170490009E0490841EAC071A0EBC35010
:1002300000F50000400800EBC350F0BC00F0E6B948
:100240006142012202EB4101001BF6E7F0BC70475E
:1002500081F00041AAE780F00040A7E780EA0102B0
:1002600010B502F00043400022D04A001FD0010E1A
:1002700001EB1261C0F35600C2F3560240F40000D5
:1002800042F40002A0FB022000047F39140400D0D5
:10029000401C50EA124001D44000491EC2B20C0674
:1002A00004EBD010401C4008802A02D003E000205C
:1002B00010BD20F00100002900DA0020184310BD15
:1002C0002DE9FE4F804681EA0300C00F0C460090E6
:1002D00021F0004123F00045B8EB0200A94105D20E
:1002E0004046214690461C460B46024623F00040FD
:1002F000104347D0270DC7F30A00C3F30A510290F9
:10030000401A019040286BDAC3F3130040F4801BBD
:100310000098924620B10023D2EB030A63EB0B0B4B
:1003200001985946C0F14002504600F04EF9064689
:100330000D4650465946019A00F056F910EB080058
:100340006141002487EA115284EAE7731A4340D0DE
:10035000009A62B3019A012A4FEA075215DC001B8A
:1003600061EB02014FF0004202EA0752CDE9004280
:10037000001C41F5801132462B4600F08DF903B088
:10038000BDE8F08F40462146F9E7001B61EB020112
:10039000001C41F5801300185B412018A2F50017DE
:1003A00047EB030140EAD570B6196D4111E06D08C5
:1003B0004FEA360645EAC0754FEA0752001B61EB6B
:1003C0000201001C41F5801149084FEA3000001974
:1003D000514132462B4603B0BDE8F04F00F04DB915
:1003E0000098012240000023D0EB020263EBE0738F
:1003F000009821464FEAE074B8EB000061EB04017D
:10040000E9E783F000435BE781F0004158E7C10F63
:1004100080EAE0700844CA079623002100F0FFB884
:1004200000F0004220F00040C10DC0F3160040F47F
:1004300000007F2901DA00207047962903DCC1F112
:100440009601C84001E096398840002AF4D0404225
:10045000704720F00040C10DC0F3160040F40000CA
:100460007F2901DA00207047962903DCC1F196014B
:10047000C8407047963988407047C1F30A5210B59A
:10048000C1F3130140F2FF3341F480119A4201DAC3
:10049000002010BD40F233439A42A2F2334203DC03
:1004A0005242FFF761FE10BD904010BD00F00042C7
:1004B00030F000400AD0C10D01F56071C0F31600A4
:1004C00042EA0151C208400711437047002001462B
:1004D0007047000030B5041E71F1000404DB4FF0DA
:1004E0000044404264EB0101141E73F1000405DB7B
:1004F0001C464FF00043524263EB0403994208BF8D
:10050000904230BD01F0004330B421F0004150EA88
:10051000010206D00A0DA2F56072C1F31301002A90
:1005200002DC30BC00207047440F44EAC104C10023
:10053000E01830BC00EBC25000F068B830B50B4694
:10054000014600202022012409E021FA02F59D4203
:1005500005D303FA02F5491B04FA02F52844151ED7
:10056000A2F10102F1DC30BD2DE9F05F054600206B
:1005700092469B4688460646814640241BE0284614
:10058000414647462246FFF7EFFD53465A46C01AFA
:10059000914110D311461846224600F016F82D1A44
:1005A00067EB01084F4622460120002100F00DF8BC
:1005B00017EB00094E41201EA4F10104DFDC484680
:1005C00031462A464346BDE8F09F202A04DB203A04
:1005D00000FA02F1002070479140C2F1200320FA96
:1005E00003F3194390407047202A06DBCB17203ACB
:1005F00041FA02F043EAE07306E041FA02F3D04028
:10060000C2F1200291400843194670470029A8BF53
:100610007047401C490008BF20F00100704710B42B
:10062000B0FA80FC00FA0CF050EA010404BF10BCE0
:10063000704749B1CCF1200421FA04F411FA0CF10D
:1006400018BF012121430843A3EB0C01CB1D4FEA46
:1006500000614FEA102042BF002010BC704700EB41
:10066000C35010440029A4BF10BC7047401C49006F
:1006700008BF20F0010010BC704710B5141E73F1C4
:10068000000408DA401C41F1000192185B411A4352
:1006900001D120F0010010BD2DE9F04D92469B469E
:1006A00011B1B1FA81F202E0B0FA80F22032904644
:1006B000FFF78BFF04460F4640EA0A0041EA0B01B0
:1006C00053465A46084313D0114653EA010019D045
:1006D000C8F140025046FFF747FD05460E4650461A
:1006E00059464246FFF771FF084305D0012004E058
:1006F00020463946BDE8F08D0020054346EAE07605
:100700002C4337430A986305E40AA0EB0800002253
:10071000FD0A44EA47540A3002D500200146E9E7C1
:10072000010510196941DDE9084500196941BDE875
:10073000F04DA2E72DE9FE4F81EA030404F00044E6
:1007400021F0004100944FF0000B23F0004350EAE9
:1007500001045ED052EA03045BD0C3F30A54C1F330
:100760000A552C44A4F2F3340194A0FB0254C1F3C3
:10077000130141F48011C3F3130343F4801301FB0D
:10078000024400FB034E840A970A44EA815447EA74
:100790008357A4FB076802958D0A05FB07854FEA7E
:1007A000932C04FB0C542705029D4FEA065847EA98
:1007B0001637B5EB08056EEB070C870E920E47EA6D
:1007C000811742EA8312A7FB0201B6EB0B0164EB2F
:1007D00000042B0D43EA0C335E1844EB1C50DA4640
:1007E0005146E7FB0201C5F313044FEA0B3343EA1A
:1007F00014534FEA0432019C43EA0603A4F10C04AB
:100800000294009CCDE900B4FFF746FF03B0BDE8B9
:10081000F08F00200146F9E72DE9F04D81EA03044D
:1008200004F0004B21F0004514464FF0000A23F07D
:10083000004150EA050220D054EA01021DD0C5F360
:100840000A570246C5F31303C1F31300C1F30A5656
:1008500040F4801543F48013A7EB0608101BD6461E
:1008600008F2FD3873EB050002D308F1010801E03E
:1008700092185B41B8F1000F03DA00200146BDE891
:10088000F08D00204FF48011064684460EE0171BC1
:1008900073EB050705D3121B63EB050306434CEA14
:1008A000010C49084FEA300092185B4150EA0107F9
:1008B000EDD152EA030012D082EA040083EA050176
:1008C000084305D0101BAB4106D20122002306E0ED
:1008D00000224FF0004302E06FF0010253101AEBC8
:1008E00006004CEB085110EB0A0041EB0B01BDE890
:1008F000F04DFFF7C2BEC1F30A52C1F3130140F23B
:10090000FF3341F480119A4202DA00200146704719
:1009100040F233439A42A2F2334202DC5242FFF7E2
:1009200023BCFFF752BE0000064C074D06E0E0680E
:1009300040F0010394E8070098471034AC42F6D326
:10094000FFF7FAFB4C3000086C300008FEE77047F8
:10095000704700002DE9F05F90F821100024022973
:1009600003D004218163012485E001680A6822F034
:100970000E020A6001680A6822F001020A603F4E16
:100980003E4FB215DFF8F4C0DFF8F090DFF8ECA0CE
:10099000DFF8E8B0DFF8E4E00168783F1301150202
:1009A000ACF1640CA9F15009AAF13C0AABF1280B97
:1009B000AEF1140E4FF48018B14227D9B9420ED0CF
:1009C000614512D049451DD0514518D0594518D020
:1009D000714501D1424615E0294EB14201D10122B3
:1009E00010E0274E1436B14201D110220AE0244E05
:1009F0002836B14206D0224A3C32914201D11A46F1
:100A000000E02A461E49091F0A602BE0B94213D0B4
:100A1000614517D0494522D051451DD059451DD0BB
:100A2000714501D142461AE0B14202D14FF08072C5
:100A300015E0134EB14201D1012210E0104E1436E0
:100A4000B14201D110220AE00D4E2836B14206D043
:100A50000B4A3C32914201D11A4600E02A4607492E
:100A600080394A60012180F82110002180F820108F
:100A7000416B01B188472046BDE8F09F80000240ED
:100A8000080402402DE9F84FDFF8B8A100220AF16E
:100A9000040B144601274FF00F090BF1040E00BFA1
:100AA0000B6807FA04F52B40AB4274D1DFF898C10C
:100AB0004E68A6EB0C0866452BD00DDC032E34D017
:100AC00005DC36B3012E19D0022E2FD11BE0112EDA
:100AD00016D0122E2AD119E0B8F5881F19D006DCDD
:100AE000B8F5803F15D0B8F5801F1FD111E0B8F5DB
:100AF000001F0ED0B8F5041F18D10AE0CA6815E02F
:100B0000CA68121D12E0CA6808320FE0CA680C32C7
:100B10000CE08A682AB1012A4FF0080203D045612F
:100B200004E0042202E0056100E00022FF2B01D86E
:100B3000064601E000F104064FEA840501D9A5F15B
:100B40002005D6F800C009FA05F82CEA080C02FACC
:100B500005F54CEA050CC6F800C04D68ED006AD5F5
:100B60003A4DAE6946F00106AE61AD6924F0030668
:100B700005F001050095364D06EB050CDCF8085034
:100B8000A6074FEA167809FA08F6B543314EB04287
:100B900002D100261AE04EE02F4EB04201D10126CC
:100BA00014E02E4EB04201D102260FE02C4EB0428E
:100BB00001D103260AE02B4EB04201D1042605E004
:100BC000294EB04201D1052600E0062606FA08F6B5
:100BD0002E43CCF808604D68DAF80060ED03554606
:100BE00001D51E4300E09E432E604D68AD0305D540
:100BF000DBF800601E43CBF8006004E0DBF8005037
:100C00009D43CBF800504D68DEF80060ED0275465C
:100C100001D51E4300E09E432E604D68AD0205D510
:100C2000084D0C352E681E432E6004E0054E0C3630
:100C300035689D433560641C102CFFF431AFBDE86E
:100C4000F88F000000040140000011100010024065
:100C50000000014000080140000C0140001001406C
:100C60000014014000180140001C01400AB101615C
:100C700070470904FBE700000148806870470000E6
:100C80001C0000200248816802781144816070478E
:100C90001C000020074810B5016841F010010160F8
:100CA000032000F073F8002000F006F800F024F8AC
:100CB000002010BD0020024070B50D4D04464FF4D9
:100CC0007A712878B1FBF0F00A490968B1FBF0F0BD
:100CD00000F0FCFA48B9102C07D200222146501E21
:100CE00000F034F800206C6070BD012070BD000081
:100CF0001C000020280000200C4808B5816941F044
:100D000001018161816901F001010091C16941F036
:100D10008051C161C06900F0805000900448416872
:100D200021F0E06141F08061416008BD00100240A7
:100D30000000014000F01F020121914040098000A5
:100D400000F1E020C0F8001170470000F0B40E4B35
:100D50001B680C46C3F30223C3F10705042D00D919
:100D60000425191D072901D2002300E0DB1E0126FE
:100D700006FA05F1491E214099409E40761E164014
:100D80003143F0BC01F03EB90CED00E0064900F043
:100D9000070208684FF6FF03184040EA0220034AA2
:100DA00010430860704700000CED00E00000FA05F9
:100DB0002DE9F047DFF8548105460E46D8F80000CB
:100DC00000F00700B0420CD2D8F8001021F0070163
:100DD0003143C8F80010D8F8000000F00700B04216
:100DE0006FD128684A4C810712D5400703D5606847
:100DF00040F4E06060602878000703D5606840F444
:100E0000605060606068A96820F0F000084360608E
:100E10002878C00744D06868012816D021680228C5
:100E200016D0890700294CDA616821F003010143DB
:100E30006160FFF721FF6968074641F288300129A8
:100E40000ED00229814618D026E021688903E9E7FF
:100E50008901E7E7FFF710FFC11B494501D918E0F9
:100E600081466068C0F381000128F3D118E000BF1B
:100E7000FFF702FFC11B49450BD86068C0F3810032
:100E80000228F5D10CE000BFFFF7F6FEC11B494573
:100E900002D90320BDE8F087606810F00C0FF3D191
:100EA000D8F80010404601F00701B1420BD90168A3
:100EB00021F0070131430160006800F00700B042F3
:100EC00001D00120E6E72878400705D56068E96889
:100ED00020F4E060084360602878000706D5606869
:100EE000296920F4605040EAC100606000F036F8E3
:100EF0006168084AC1F30311515CC84006490860A3
:100F00000020FFF7D9FE0020C4E7000000200240C7
:100F10000010024034300008280000200448054931
:100F200000684968044AC1F30221515CC840704717
:100F30002800002000100240443000080448054901
:100F400000684968044AC1F3C221515CC840704737
:100F500028000020001002404430000812A185B093
:100F60000FC98DE80F0014A0144A0068049051685E
:100F7000134801F00C03042B10D0082B0ED1C1F341
:100F80008343C9031DF803000AD5516804AAC1F3BD
:100F90004041515C0A4A5043B0FBF1F005B0704744
:100FA00008494843FAE70000020304050607080958
:100FB0000A0B0C0D0E0F1010010200000010024071
:100FC00000127A0000093D002DE9F84F0446007830
:100FD000B94DC00748D06868C0F38100012807D028
:100FE0006868C0F38100022809D16868C00306D58B
:100FF0002868800338D5606800286FD034E06068C6
:10100000B0F5803F0BD010B1B0F5A02F11D02868FB
:1010100020F480302860286820F4802002E02868CE
:1010200040F480302860606888B1FFF725FE0646EE
:1010300009E0286840F480202860F0E7FFF71CFEF4
:10104000801B642875D828688003F7D50CE0FFF76B
:1010500013FE064605E000BFFFF70EFE801B642866
:10106000F0D828688003F7D42078944E80074FF09A
:1010700001094FF000083BD5686810F00C0F07D04D
:101080006868C0F38100022809D16868C00306D4EB
:101090002868800714D5206901281FD110E0206935
:1010A000B0B1C6F80090FFF7E7FD074605E000BFC6
:1010B000FFF7E2FDC01B0228C4D828688007F7D5D7
:1010C0002868616920F0F80040EAC10028600FE05C
:1010D000C6F80080FFF7D0FD074606E0E9E000BF54
:1010E000FFF7CAFDC01B022823D828688007F7D461
:1010F000207800072CD57248A169D9B1C0F80090BA
:10110000FFF7BAFD074604E0FFF7B6FDC01B022853
:101110000FD8686A8007F7D56A484FF4FA5100681B
:10112000B0FBF1F0009000BF0098411E0091FAD290
:101130000EE080E0C0F80080FFF79EFD074604E067
:10114000FFF79AFDC01B022875D8686A8007F7D49C
:101150002078400760D5E8690027C00008D4E86916
:1011600040F08050E861E869012700F0805000906D
:1011700055480168C90513D40168834641F480715C
:101180000160FFF779FD824606E000BFFFF774FDBE
:10119000A0EB0A0064284ED8DBF80000C005F5D5A6
:1011A000E06801280AD008B1052813D0286A20F089
:1011B00001002862286A20F0040002E0286A40F05A
:1011C00001002862E06841F2883B98B1FFF754FDC6
:1011D00082460BE0286A40F004002862EEE700BF78
:1011E000FFF74AFDA0EB0A0159455AD8286A800743
:1011F000F6D50CE0FFF740FD824605E0FFF73CFD29
:10120000A0EB0A0159454CD8286A8007F6D41FB1D3
:10121000E86920F08050E861E06988B36968C1F34B
:101220008101022945D00228C6F8608004D0FFF76A
:1012300023FD044638E034E0FFF71EFD074604E0D6
:10124000FFF71AFDC01B02282BD828688001F7D4AD
:10125000206AB0F5803F05D16868A16820F40030AD
:1012600008436860D4E908010843696821F47411EF
:1012700008436860C6F86090FFF7FEFC044606E08D
:1012800015E000BFFFF7F8FC001B022809D828680A
:101290008001F7D50BE000BFFFF7EEFC001B022832
:1012A00002D90320BDE8F88F28688001F4D400201B
:1012B000F8E70120F6E7000000100240000042427B
:1012C00080044242280000200070004010B5401EFB
:1012D000B0F1807F01D3012010BD4FF0E0246061A8
:1012E0000F21601700F08EFE0020A0610720206112
:1012F000002010BD7047704730B590F83C20012A9F
:1013000020D0012280F83C20022380F83D30036881
:101310005C6824F070045C6003685C680D682C43B2
:101320005C6003689C6824F080049C6003689C688F
:1013300049680C439C6080F83D20002180F83C10F7
:10134000084630BD022030BD10B5040003D094F82B
:101350003D0010B107E0012010BD002084F83C00E2
:10136000204600F00DF8022084F83D00211D206881
:1013700000F0B4FE012084F83D00002010BD000004
:1013800008B500680B49884212D10B48816941F4C5
:10139000006181618069002200F4006000901146C4
:1013A0001920FFF7D3FCBDE808401920FFF7C2BCA5
:1013B00008BD0000002C01400010024070B504463A
:1013C00090F83C00012817D0012584F83C500220F9
:1013D00084F83D002068826822F0770222F47F4280
:1013E00082600868502837D00DDC202859D005DCF1
:1013F00088B3102841D151E0022070BD302853D06D
:1014000040283AD13FE060282ED070280BD0B0F5AC
:10141000805F03D0B0F5005F2FD110E020688168B5
:1014200021F0070115E0CB68D1E90121206800F027
:10143000A6FE2168886840F0770088601DE0CB68D0
:10144000D1E90121206800F09AFE2068816841F40A
:101450008041816011E01EE0CA684968206800F0A0
:1014600063FF5021206806E0CA684968206800F0E0
:101470006CFF6021206800F08CFE84F83D50002055
:1014800084F83C0070BDCA684968206800F04CFFD1
:1014900040212068EFE700212068ECE71021206858
:1014A000E9E720212068E6E730212068E3E72DE91D
:1014B000F0410D46040003D094F83D0018B108E057
:1014C0000120BDE8F081002084F83C00204600F0B7
:1014D00039F8022084F83D002068816821F0070176
:1014E0008160211D206800F0F9FD226890689169F3
:1014F000166A2B68AF69034340F20330814341EA27
:101500000721A868EF6908434FF6FC418843E96862
:1015100040EA0720014328692F6A000140EA0730AA
:10152000084369686D6926F0AA0646EA051529434D
:1015300093602268906120680162012084F83D0078
:101540000020BEE700B585B0002100910191029115
:10155000039100680D49884216D10D48C16941F0D8
:101560000201C161C16901F002010491816941F088
:10157000040181618069694600F004000490C02084
:1015800000900448FFF77EFA05B000BD000400405B
:10159000001002400008014010B50446006889B1FF
:1015A00004294FF0010216D0002100F0DDFD0122D8
:1015B0000421206800F0D8FD2068C16841F00201D4
:1015C000C1600BE00122002100F0CEFD2068C1685F
:1015D00041F0020106E0042100F0C6FD2068C16868
:1015E00041F00401C1602068016841F0010101601F
:1015F000002010BD704770B50446006801694FF0C7
:101600000005C943890715D4C168C943890711D4A6
:10161000E91E01610120207720688069800720464B
:1016200002D0FFF7E7FF04E000F0C8F8204600F022
:1016300065F9257720680169C943490717D4C1684E
:10164000C943490713D46FF00401016102202077D8
:101650002068806910F4407F204602D0FFF7CAFF5F
:1016600004E000F0ABF8204600F048F92577206848
:101670000169C943090716D4C168C943090712D4CF
:101680006FF008010161042020772068C06980079D
:10169000204602D0FFF7AEFF04E000F08FF82046AE
:1016A00000F02CF9257720680169C943C90617D4D1
:1016B000C168C943C90613D46FF010010161082045
:1016C00020772068C06910F4407F204602D0FFF7E1
:1016D00091FF04E000F072F8204600F00FF9257742
:1016E00020680169C943C90708D1C168C943C9074E
:1016F00004D1891E0161204600F01EF920680169AD
:10170000C943090609D4C168C943090605D46FF065
:10171000800101612046FFF7EDFD20680169C943A2
:10172000490609D4C168C943490605D46FF0400190
:101730000161204600F058F920680169C943890613
:101740000BD4C168C943890607D46FF02001016139
:101750002046BDE87040FFF7CEBD70BD00B585B036
:10176000002100910191029103910068B0F1804F36
:101770001BD10F48816941F004018161806969468C
:1017800000F0040004904FF400400090022001900B
:1017900003900848FFF776F90748416821F4407143
:1017A00041F0E06141F48071416005B000BD00008E
:1017B000001002400008014000000140704770B571
:1017C000044690F83C000D4601280DD0012684F80F
:1017D0003C60022084F83D0042B1042A18D0082A57
:1017E0002AD00C2A4DD139E0022070BD206800F0CB
:1017F000D9FC2068816941F0080181612068816914
:1018000021F004018161206881692A69114311E096
:10181000206800F0F7FC2068816941F40061816173
:101820002068816921F480618161206881692A6969
:1018300041EA0221816124E0206800F019FD20685E
:10184000C16941F00801C1612068C16921F004014A
:10185000C1612068C1692A69114311E0206800F064
:101860003BFD2068C16941F40061C1612068C16924
:1018700021F48061C1612068C1692A6941EA0221BD
:10188000C16184F83D60002084F83C0070BD10B553
:10189000040003D094F83D0010B107E0012010BD12
:1018A000002084F83C00204600F00CF8022084F868
:1018B0003D00211D206800F011FC012084F83D004E
:1018C000002010BD08B50068B0F1804F12D10A4861
:1018D000C16941F00101C161C069002200F001004D
:1018E000009002211C20FFF731FABDE808401C20BF
:1018F000FFF720BA08BD000000100240704700004A
:1019000010B504460068012200F02EFC084920684A
:10191000884202D00749884203D1416C41F400411A
:1019200041642068016841F001010160002010BDA0
:10193000002C0140003401407CB51B490068096857
:10194000884230D119480568686A00B2FEF75FFD29
:10195000174C0021E0606962FEF77BFDC5B2A0680C
:10196000FEF75EFD294601F025FBE068FEF79EFDCF
:1019700005460E46A068FEF799FDCDE900560246E1
:101980000B460CA000F078FE6068FEF78FFD054660
:101990000E462068FEF78AFDCDE9005602460B464A
:1019A0000CA000F069FE7CBD30000020B0000020DB
:1019B00000000020C4BFB1EACBD9B6C8A3BA2566DF
:1019C0002020B5B1C7B0CBD9B6C8202566205C723F
:1019D0000A0000006B70203A2025662020206B69E9
:1019E0003A202566200000007047704770B50268F5
:1019F00004461068D168536910F00F0F51D003F0FE
:101A0000010501F4907635435DD0C20705D0CA05C3
:101A100003D5E26B42F00102E263420705D5DA0723
:101A200003D0E26B42F00202E263820705D5DA07D7
:101A300003D0E26B42F00402E263020705D5DA0745
:101A400003D0E26B42F00802E263E26B002A34D07A
:101A5000800604D5880602D5204600F09EFC20684A
:101A60004069E16BC0F3801001F00801014320469A
:101A700024D000F084FC2068416949061AD54169E8
:101A800021F040014161606BA0B11B494163606B73
:101A9000FEF760FF002810D0606B416BBDE870401E
:101AA000084783060FD58B060DD52046BDE870404C
:101AB00000F073BC2046FFF798FF70BDFFF795FF5D
:101AC0000020E06370BD030606D50B0604D5204652
:101AD000BDE8704000F064BD4006F3D54806F1D57E
:101AE000D168204621F04001D160202184F83910CE
:101AF00000F08DF970BD00006F23000870B5040080
:101B000004D094F83900002510B106E0012070BD22
:101B100084F83850204600F023F8242084F8390057
:101B20002068C16821F40051C160204600F080FCAB
:101B30002068016921F4904101612068416921F028
:101B40002A0141612068C16841F40051C160E56328
:101B5000202084F8390084F83A00002070BD00008D
:101B600030B585B000240094019402940394006879
:101B7000184988422CD11848816941F4804181611B
:101B8000816901F480410491816941F0040181611E
:101B90008069124D00F0040004904FF40070009032
:101BA000022001900320039069462846FEF76AFF51
:101BB0002815CDE90004694628460294FEF762FF25
:101BC000002201212520FFF7C1F82520FFF7B2F8F8
:101BD00005B030BD0038014000100240000801404F
:101BE0002DE9F843044690F83A00994616460D460A
:101BF00020284FD195B18EB194F83800012849D0F2
:101C0000012084F838000027E763222084F83A0096
:101C1000FFF732F8A6858046E68531E00120BDE871
:101C2000F883E08D401EE085A0684346B0F5805FF4
:101C30004FF000024FF020012046CDF8009004D074
:101C400000F0DFFC98B10320E9E700F0DAFC00289F
:101C5000F9D1206900282068406803D0C1B225F876
:101C6000011B0DE0C0F3080125F8021B08E0206904
:101C700000282068406801D000F07F0005F8010BC3
:101C8000E08D0028CDD1202084F83A0084F8387007
:101C90000020C4E70220C2E7FEB5254D0068296890
:101CA000884243D108231A4602A92846FFF798FF25
:101CB0009DF808001F4C4FF07C5140B101280AD01C
:101CC0001D4E1E4F02280BD0032811D01AE02068A9
:101CD000FEF76CFA02E02068FEF7BAFA206011E025
:101CE0006068FEF7E3FB32463B46FEF7E9FA06E0A2
:101CF0006068FEF7DBFB32463B46FEF782FBFEF7F1
:101D000001FC60602868C16841F02001C160606822
:101D1000FEF7CCFB05460E462068FEF7C7FBCDE973
:101D2000005602460B4606A000F0A6FCFEBD0000D1
:101D3000F0000020000000207B14AE47E17A843FD1
:101D40006B70203A2025662020206B693A2025669A
:101D50000D0A20002DE9F843044690F839001F468B
:101D600016460D46202850D1A5B19EB194F83800F2
:101D700001284AD0012084F838004FF00008C4F848
:101D80003C80212084F83900FEF776FFA684814646
:101D9000E68426E00120BDE8F883E08C401EE08464
:101DA000A0684B46B0F5805F4FF000024FF0800115
:101DB0002046009703D000F024FCE8B90DE000F0C5
:101DC00020FCC8B928882168C0F308004860206951
:101DD00008B16D1C05E0AD1C03E0216815F8010B8E
:101DE0004860E08C0028D8D14B4600224021204694
:101DF000009700F006FC08B10320CCE7202084F80F
:101E0000390084F838800020C5E70220C3E7704716
:101E1000FEE7000030B585B0002418480094019416
:101E200002940394816941F020018161816901F08C
:101E300020010491816941F004018161816901F00F
:101E400004010491816941F00801816180690C4DB0
:101E500000F0080004900022C0212846FEF706FF8B
:101E6000C02000900120CDE90104022003906946C2
:101E70002846FEF707FE05B030BD00000010024006
:101E8000000C014010B586B000241748009401945E
:101E900002940394049413490594016041F61F4190
:101EA000C0E901143121C0E9031444618461FFF7E2
:101EB0004BFA08B1FEF74CFD4FF480500090694694
:101EC0000948FFF77BFA08B1FEF742FD049404A924
:101ED00005480594FFF710FA002801D0FEF738FDF9
:101EE00006B010BD002C01403000002010B58AB0B3
:101EF000002407941C2168460894FEF74CF9164804
:101F00004FF08041016041F61F41C0E901144FF4D8
:101F10007A71C0E903148461FFF7B9FC08B1FEF7D8
:101F200017FD079407A90C480894FFF7E5F908B1D5
:101F3000FEF70EFD6020CDE9000402940022694600
:101F400005480494FFF73BFC08B1FEF701FD024889
:101F5000FFF704FC0AB010BD7000002010B58CB073
:101F600024216846FEF717F90024164809941449FD
:101F70000A9401600321C0E901144FF6FF72C0E921
:101F80000324846100910120CDE90140039404946D
:101F9000CDE90540079469460A480894FFF787FA97
:101FA00008B1FEF7D5FC099409A906480A94FFF781
:101FB000A3F9002801D0FEF7CBFC0CB010BD000047
:101FC00000040040B00000200C4810B50A49016030
:101FD0004FF4E1314160002181600C22C160C0E911
:101FE00004128161C161FFF789FD002803D0BDE8BB
:101FF0001040FEF7ADBC10BD00380140F0000020DD
:10200000FEE770470907090E002806DA00F00F0006
:1020100000F1E02080F8141D704700F1E02080F806
:102020000014704770477047FEF72CBE30B58FB074
:1020300028216846FEF7AFF814210AA8FEF7ABF88E
:1020400001210804CDE90010002402940225049126
:10205000CDE907504FF4E01009906846FEF7B4FF51
:102060000F20CDE90A056802CDE90C4002210AA83B
:102070000E94FEF79DFE0FB030BD00000D480168C4
:1020800041F00101016041680B4A11404160016863
:102090000A4A11400160016821F480210160416811
:1020A00021F4FE0141604FF41F0181600449C00327
:1020B00008607047001002400000FFF8FFFFF6FEC6
:1020C00008ED00E00148FFF796BA0000300000205C
:1020D0000148FFF790BA000070000020F0B50268D8
:1020E0001C4B1D4D1D4E1E4F1E4C4FF0804C9842F8
:1020F00009D0A04207D0604505D0A84203D0B04225
:1021000001D0B84204D122F0700E4A6842EA0E02B1
:10211000984209D0A04207D0604505D0A84203D01C
:10212000B04201D0B84203D122F44075CA682A43B4
:1021300022F080054A692A4302608A68C2620A68FE
:102140008262984201D0A04201D109690163012154
:102150004161F0BD002C0140000400400008004037
:10216000000C00400034014010B50123046A8B408C
:102170009C430462036A8A401343036210BD10B596
:10218000846842EA032224F47F440A4322438260A3
:1021900010BD826822F070020A4342F0070181609C
:1021A00070470000F0B5026A22F001020262036A81
:1021B00042688469124E24F073050C682C4323F0A6
:1021C00002058B682B430D4DA84201D0B04205D1CA
:1021D00023F00807CB683B4323F00403A84201D057
:1021E000B04205D14D6922F4407215438A692A43F1
:1021F00042608461496841630362F0BD002C014084
:1022000000340140F0B5026A22F010020262026A54
:10221000436884690D6824F4E64444EA05248D6823
:1022200022F0200242EA05120F4D104EA84201D0C2
:10223000B04206D1CF6822F0800242EA071222F0B3
:102240004002A84201D0B04207D14D6923F4406357
:1022500043EA85038D6943EA8503436084614968E5
:1022600081630262F0BD0000002C01400034014097
:10227000F0B5026A22F480720262026A4368C4699D
:1022800022F4007224F073050C68124E2C438D6802
:1022900042EA05220E4DA84201D0B04206D1CF68D5
:1022A00022F4006242EA072222F48062A84201D0AE
:1022B000B04207D14D6923F4405343EA05138D69B9
:1022C00043EA05134360C4614968C1630262F0BD1B
:1022D000002C01400034014030B5026A22F48052E3
:1022E0000262046A4268C3690D6823F4E64343EA64
:1022F00005238D6824F4005444EA0534084DA842AF
:1023000002D0084DA84204D14D6922F4804242EA2D
:1023100085124260C36149680164046230BD0000F7
:10232000002C01400034014010B5036A046A24F017
:1023300001040462846924F0F00444EA021423F0E6
:102340000A020A438461026210BD10B5036A23F0D9
:10235000100303628369046A23F4704343EA023280
:1023600024F0A00343EA01118261016210BD10B59F
:10237000406A0021C185C184FFF737FB10BD0168A9
:10238000CA6822F49072CA6001684A6922F00102A8
:102390004A61202180F83A10704710B590F83A1041
:1023A000222901D0022010BD8168B1F5805F11D0D3
:1023B0000169002901681FD0496801F07F03816A23
:1023C0004A1C82620B70C18D491E0904090CC1852B
:1023D00018D02BE00269816A002A0268526805D091
:1023E000D2B20A80816A491C8162ECE7C2F308021A
:1023F0000A80816A891CF7E74A68816A4B1C8362FC
:102400000A70E0E70168CA6822F02002CA60016829
:10241000CA6822F48072CA6001684A6922F0010227
:102420004A61202180F83A10FFF736FC002010BDE9
:102430002DE9F041044600680169E26821F4405149
:10244000114301612169A06808436169084321685B
:10245000CA6841F20C639A430243CA60206841692A
:10246000A26921F44071114341614C4920686425FF
:10247000322688423CD1FEF761FD00EBC00101EB42
:10248000001061688900B0FBF1F7FEF757FD00EB23
:10249000C00101EB00106168B0468900B0FBF1F0AB
:1024A000B0FBF5F06FF01801484307EB800106EB35
:1024B0000110B0FBF5F000F0F006FEF73FFD00EB79
:1024C000C00101EB001061688900B0FBF1F0B0FBC6
:1024D000F5F006EB0016FEF731FD00EBC00101EB55
:1024E000001061688900B0FBF1F7FEF727FD3BE0C3
:1024F000FEF714FD00EBC00101EB001061688900DC
:10250000B0FBF1F7FEF70AFD00EBC00101EB001094
:102510006168B0468900B0FBF1F0B0FBF5F06FF0F8
:102520001801484307EB800106EB0110B0FBF5F002
:1025300000F0F006FEF7F2FC00EBC00101EB00102A
:1025400061688900B0FBF1F0B0FBF5F006EB001616
:10255000FEF7E4FC00EBC00101EB001061688900AC
:10256000B0FBF1F7FEF7DAFC00EBC00101EB001065
:1025700061688900B0FBF1F0B0FBF5F06FF0180175
:10258000484307EB800108EB0110B0FBF5F0216830
:1025900000F00F0030448860BDE8F0810038014051
:1025A00090F83910212901D0022070478168B1F5D7
:1025B000805F016A0BD04A1C026202680978516090
:1025C000C18C491E0904090CC1840ED017E009888A
:1025D0000268C1F30801516001690029016A02D053
:1025E000491C0162ECE7891CFBE70168CA6822F01C
:1025F0008002CA600068C16841F04001C1600020EB
:1026000070472DE9F041984617460E460446069D50
:102610001DE0681C1BD02DB1FEF72EFBA0EB0800BF
:10262000A84214D92068C16821F4D071C160206823
:10263000416921F001014161202084F8390084F8CA
:102640003A00002084F838000320BDE8F0812068BB
:10265000006836EA000004D00020B842D9D000203B
:10266000F3E70120F9E700000148FFF7BFB90000D8
:10267000F0000020FEE700000FB4054B10B503A9E1
:10268000044A029800F0CAF810BC5DF814FB000080
:102690004D2F00082C00002002E008C8121F08C1BE
:1026A000002AFAD170477047002001E001C1121FD3
:1026B000002AFBD1704700002DE9FF5FDDE9022011
:1026C000010DDDF838B0024318D044F61050A1F2E5
:1026D000FF3141430D140F98012820D0A5EB0B00CA
:1026E000401C5FEA000A4FF00004474EDFF81C91DF
:1026F000A046504616D5CAF1000728E00F980124DD
:1027000043A2012808D0002100980F9BC0E90021B6
:10271000C0E90243BDE8FF9F6FEA0B01F4E7CBF18C
:102720000000DEE7074612E0F80707D022463346EE
:1027300040464946FDF7FEFF80468946224633461D
:1027400010461946FDF7F6FF04460E467F10002F8F
:10275000EAD1DDE90201BAF1000F42464B4602DA46
:10276000FDF7E8FF01E0FEF757F804460E460022A9
:10277000284BFDF7AFFE03D84FF0FF30014607E0CE
:102780000022254B20463146FDF79AFDFEF7B3F8AF
:10279000102409E0002C0ADB0A220023FDF7E4FEE6
:1027A000019B30321A55641E50EA0102F2D1641CBA
:1027B000019AC4F1110314440F9A012A03D0012293
:1027C00008430DD10AE0084304D000204FF0110B5C
:1027D0000F9080E7A3EB0B056D1E0DE05B4504DD5C
:1027E0004FF0000205F1010504E003DA4FF00002AA
:1027F000A5F10105002AECD000980F99C0E902313B
:10280000C0E9004586E70000000024400000F03FDA
:10281000300000000000F0430000E03F2DE9FF4FD2
:1028200095B09B468946064600250FE2252877D1BC
:1028300000242746F84A0121059400E0044316F8D5
:10284000013F203B01FA03F01042F7D130782A28EB
:1028500011D06FF02F033078A0F13002092A16D87A
:10286000059A44F0020402EB820203EB4202104498
:10287000761C0590EFE759F8042B0592002A03DA3D
:10288000504244F40054059044F00204761C307821
:102890002E2816D116F8010F44F004042A280DD072
:1028A0006FF02F023078A0F13003092B09D807EB25
:1028B000870302EB4303C718761CF3E759F8047B40
:1028C000761C30786C280FD006DC4C2817D068288E
:1028D0000DD06A2814D104E0742810D07A280FD1C2
:1028E0000DE044F400140AE044F4801401E044F4E0
:1028F00040147278824202D104F58014761C761C52
:10290000307866280BD013DC582877D009DC0028F3
:1029100075D04528F6D04628F4D047281AD19DE135
:1029200018E0632835D0642879D0652812D195E164
:10293000702873D008DC6728F1D069286FD06E2822
:102940000DD06F2806D1B5E073282CD0752875D02E
:10295000782874D05A46179990476D1C75E1C4F3D6
:102960000250022809D003280DD0D9F800100428FD
:102970000DD00D6009F1040967E1D9F80010EA17DC
:10298000C1E90052F6E7D9F800100D80F2E70D70AA
:10299000F0E719F8041B8DF8001000208DF80100F5
:1029A000EA46012003E059F804AB4FF0FF3061071D
:1029B0004FF0000102D40DE008F101018846B94250
:1029C0000FDA8045F8DB1AF808100029F4D108E086
:1029D00008F1010188468142FADB1AF80810002943
:1029E000F6D105985B46A0EB080721463846179AB2
:1029F00000F094FA284400EB080507E04DE029E1D7
:102A00000DE01AF8010B5A4617999047B8F10108E2
:102A1000F7D25B4621463846179A13E142E00A2274
:102A20000092C4F302524FF0000A022A08D059F86B
:102A300004CB032A4FEAEC710AD00DE029E02AE02A
:102A400009F1070121F00702F2E802C1914609E00D
:102A50000FFA8CFC4FEAEC71042A03D14FFA8CFC7C
:102A60004FEAEC71002907DA0A460021DCF1000C7C
:102A700061EB02012D2202E0220504D52B228DF804
:102A80000420012203E0E20701D02022F7E790466C
:102A900059E00A2102E010220DE010214FF0000A57
:102AA00000910BE010224FF0000A44F004040827C4
:102AB000009203E008224FF0000A0092C4F3025291
:102AC000022A05D059F804CB0021032A08D009E0D6
:102AD00009F1070121F00702F2E802C1914605E081
:102AE0001FFA8CFC042A01D10CF0FF0C4FF00008F7
:102AF000220728D5702806D0009B83F0100353EAE4
:102B00000A0305D00EE040228DF80420012208E0DF
:102B10005CEA010206D030228DF804208DF8050011
:102B200002229046009B83F0080353EA0A030AD16D
:102B30005CEA010201D1620705D530228DF804203C
:102B40004FF001087F1E582804D034A003900EA82F
:102B500002900DE036A0F9E753466046009AFDF773
:102B600003FD84460398825C0298401E0290027026
:102B70005CEA0100F0D1029806A9081A00F1200AC7
:102B8000600702D524F4803400E00127574502DDB8
:102B9000A7EB0A0000E0002000EB0A010090059876
:102BA0004144401A0590E00306D45B462146179A3B
:102BB000059800F0B3F90544002706E001A85A463D
:102BC000C05D179990476D1C7F1C4745F6DBE003FD
:102BD0000CD55B462146179A059800F09FF90544ED
:102BE00004E030205A46179990476D1C0099481E02
:102BF00000900029F5DC08E0029802995A46007816
:102C0000491C0291179990476D1CBAF10001AAF175
:102C1000010AF1DC65E1000009280100303132339E
:102C20003435363738396162636465660000000008
:102C300030313233343536373839414243444546F2
:102C40000000000000F058F90544761C3078002898
:102C50007FF4ECAD19B02846BDE8F08F620700D4D0
:102C6000062709F1070222F0070CFCE80223E146DF
:102C700003F000485FEA080C02D00FF2702C0DE060
:102C80005FEA045C02D50FF2682C07E05FEAC47CBF
:102C900002D00FF2602C01E0AFF2700C4FF0FF3861
:102CA00023F00043CDF850C065280CD006DC452841
:102CB00009D046281DD047283DD13DE0662818D0D0
:102CC00067287ED138E00021112F01DB112000E0C0
:102CD000781CCDE9000106A90EA8FFF7EDFCDDE99F
:102CE0000F010E9A03910021009207F1010A04914D
:102CF0004DE04FF000400097CDE9011006A90EA865
:102D0000FFF7DAFCDDE90F0203920E9B1199002216
:102D1000DDF80CA00093049211B9791C00EB010AB4
:102D2000B7EB0A0004D4C0F1FF3007F1010A0490A8
:102D3000AAEB0700019044E0012F00DA01270021EF
:102D4000112F01DD112000E03846CDE9000106A970
:102D50000EA8FFF7B1FCDDE90F010E9A03910021E7
:102D600004910092BA4621070CD40399514500DA28
:102D70008A46BAF1010F05DD009AAAF10101515C02
:102D8000302908D0B84202DA10F1040F06DA012126
:102D9000CDE9011015E0AAF10101E9E7002805DC01
:102DA000049901440491AAEB000102E0411C514541
:102DB00000DD8A460499401A401C01904FF0004003
:102DC0000290200704D40198504501DBCDF804801F
:102DD00000208DF84F0002980DF14F07B0F1004F21
:102DE00025D02B200E9002984FF0020800280CDA14
:102DF000404202902D200E9007E00A210298FDF734
:102E00009DFB3031029007F8011DB8F10001A8F1D7
:102E10000108F2DC02980028EFD1791E0E980870A4
:102E2000307800F0200040F0450007F8020D12A8AD
:102E3000C01B00F107081498007800B1012000EBD6
:102E40000A01019801EBE07105984144401A401EC7
:102E50000590E00306D45B462146179A059800F0DA
:102E60005DF805441498007818B15A4617999047B0
:102E70006D1CE00324D55B462146179A059800F0A7
:102E80004DF805441CE00498002807DBDDE9030148
:102E9000884203DD0098405C179901E017993020C3
:102EA0005A469047049805F10105401C049001988A
:102EB000401E019004D12E205A46179990476D1C50
:102EC000BAF10001AAF1010ADDDC05E017F8010BF7
:102ED0005A46179990476D1CB8F10001A8F10108F6
:102EE000F4DC5B462146179A0598ABE62D000000FE
:102EF0002B000000200000002DE9F04104460025D1
:102F00001E461746880404D405E039462020B04701
:102F10006D1C641EF9D52846BDE8F0812DE9F0410D
:102F2000044600251E469046C80301D5302700E020
:102F30002027880404D505E041463846B0476D1C7B
:102F4000641EF9D52846BDE8F081000013B54FF6A0
:102F5000FF73012269460248FEF7FCFE00981CBD83
:102F6000F0000020FDF796FEFFF760F8FEF752FF35
:102F7000FEF7BCFFFEF7F2FFFEF784FFFFF724F831
:102F800000210948FEF7BCFC18210848FEF704FBA5
:102F900007480068C16841F02001C1600349002072
:102FA00009684862FEE7000070000020B0000020C1
:102FB000F000002070B5194C081AFDF728FA0546F4
:102FC0002060174829460068FDF748F9064628465C
:102FD000A168FDF73DF913490968FDF73FF931464E
:102FE000FDF7E4F86168FDF7E1F8C4E90105FDF7D4
:102FF0005DFA21F0004100220B4BFDF76BFA01D383
:10300000606801E009486060FDF750FA21F0004176
:10301000FDF733FA06490968486370BD10000020C7
:10302000040000200000002000408F4000007A448F
:1030300070000020000000000000000001020304F6
:103040000607080900000000010203046C300008B4
:103050000000002030000000982600089C30000886
:103060003000002000050000A826000800002042D3
:10307000CDCC4C3D0000F0410000000000000000FD
:10308000000000000000000001000000100000002F
:0C3090000000000000A24A040000000044
:0400000508000131BD
:00000001FF
